{
  "contractName": "Gallery",
  "abi": [
    {
      "constant": true,
      "inputs": [
        {
          "name": "_owner",
          "type": "address"
        },
        {
          "name": "_id",
          "type": "uint256"
        }
      ],
      "name": "balanceOf",
      "outputs": [
        {
          "name": "",
          "type": "uint256"
        }
      ],
      "payable": false,
      "stateMutability": "view",
      "type": "function",
      "signature": "0x00fdd58e"
    },
    {
      "constant": true,
      "inputs": [
        {
          "name": "_interfaceId",
          "type": "bytes4"
        }
      ],
      "name": "supportsInterface",
      "outputs": [
        {
          "name": "",
          "type": "bool"
        }
      ],
      "payable": false,
      "stateMutability": "view",
      "type": "function",
      "signature": "0x01ffc9a7"
    },
    {
      "constant": true,
      "inputs": [
        {
          "name": "",
          "type": "uint256"
        }
      ],
      "name": "maxIndex",
      "outputs": [
        {
          "name": "",
          "type": "uint256"
        }
      ],
      "payable": false,
      "stateMutability": "view",
      "type": "function",
      "signature": "0x08d7d469"
    },
    {
      "constant": false,
      "inputs": [
        {
          "name": "_from",
          "type": "address"
        },
        {
          "name": "_to",
          "type": "address"
        },
        {
          "name": "_ids",
          "type": "uint256[]"
        },
        {
          "name": "_values",
          "type": "uint256[]"
        },
        {
          "name": "_data",
          "type": "bytes"
        }
      ],
      "name": "safeBatchTransferFrom",
      "outputs": [],
      "payable": false,
      "stateMutability": "nonpayable",
      "type": "function",
      "signature": "0x2eb2c2d6"
    },
    {
      "constant": true,
      "inputs": [
        {
          "name": "",
          "type": "address"
        }
      ],
      "name": "tokenProvided",
      "outputs": [
        {
          "name": "",
          "type": "bool"
        }
      ],
      "payable": false,
      "stateMutability": "view",
      "type": "function",
      "signature": "0x425beb10"
    },
    {
      "constant": true,
      "inputs": [
        {
          "name": "_owners",
          "type": "address[]"
        },
        {
          "name": "_ids",
          "type": "uint256[]"
        }
      ],
      "name": "balanceOfBatch",
      "outputs": [
        {
          "name": "",
          "type": "uint256[]"
        }
      ],
      "payable": false,
      "stateMutability": "view",
      "type": "function",
      "signature": "0x4e1273f4"
    },
    {
      "constant": true,
      "inputs": [
        {
          "name": "_id",
          "type": "uint256"
        }
      ],
      "name": "isNonFungibleItem",
      "outputs": [
        {
          "name": "",
          "type": "bool"
        }
      ],
      "payable": false,
      "stateMutability": "pure",
      "type": "function",
      "signature": "0x5e81b958"
    },
    {
      "constant": true,
      "inputs": [
        {
          "name": "_id",
          "type": "uint256"
        }
      ],
      "name": "ownerOf",
      "outputs": [
        {
          "name": "",
          "type": "address"
        }
      ],
      "payable": false,
      "stateMutability": "view",
      "type": "function",
      "signature": "0x6352211e"
    },
    {
      "constant": true,
      "inputs": [
        {
          "name": "_id",
          "type": "uint256"
        }
      ],
      "name": "getNonFungibleBaseType",
      "outputs": [
        {
          "name": "",
          "type": "uint256"
        }
      ],
      "payable": false,
      "stateMutability": "pure",
      "type": "function",
      "signature": "0x6f969c2d"
    },
    {
      "constant": false,
      "inputs": [],
      "name": "renounceOwnership",
      "outputs": [],
      "payable": false,
      "stateMutability": "nonpayable",
      "type": "function",
      "signature": "0x715018a6"
    },
    {
      "constant": true,
      "inputs": [
        {
          "name": "_id",
          "type": "uint256"
        }
      ],
      "name": "isNonFungibleBaseType",
      "outputs": [
        {
          "name": "",
          "type": "bool"
        }
      ],
      "payable": false,
      "stateMutability": "pure",
      "type": "function",
      "signature": "0x7269a327"
    },
    {
      "constant": false,
      "inputs": [
        {
          "name": "_id",
          "type": "uint256"
        },
        {
          "name": "_to",
          "type": "address[]"
        },
        {
          "name": "_quantities",
          "type": "uint256[]"
        }
      ],
      "name": "mintFungible",
      "outputs": [],
      "payable": false,
      "stateMutability": "nonpayable",
      "type": "function",
      "signature": "0x78b27221"
    },
    {
      "constant": true,
      "inputs": [],
      "name": "owner",
      "outputs": [
        {
          "name": "",
          "type": "address"
        }
      ],
      "payable": false,
      "stateMutability": "view",
      "type": "function",
      "signature": "0x8da5cb5b"
    },
    {
      "constant": true,
      "inputs": [],
      "name": "isOwner",
      "outputs": [
        {
          "name": "",
          "type": "bool"
        }
      ],
      "payable": false,
      "stateMutability": "view",
      "type": "function",
      "signature": "0x8f32d59b"
    },
    {
      "constant": true,
      "inputs": [
        {
          "name": "_id",
          "type": "uint256"
        }
      ],
      "name": "getNonFungibleIndex",
      "outputs": [
        {
          "name": "",
          "type": "uint256"
        }
      ],
      "payable": false,
      "stateMutability": "pure",
      "type": "function",
      "signature": "0x9cca1c64"
    },
    {
      "constant": false,
      "inputs": [
        {
          "name": "_operator",
          "type": "address"
        },
        {
          "name": "_approved",
          "type": "bool"
        }
      ],
      "name": "setApprovalForAll",
      "outputs": [],
      "payable": false,
      "stateMutability": "nonpayable",
      "type": "function",
      "signature": "0xa22cb465"
    },
    {
      "constant": true,
      "inputs": [
        {
          "name": "_id",
          "type": "uint256"
        }
      ],
      "name": "isFungible",
      "outputs": [
        {
          "name": "",
          "type": "bool"
        }
      ],
      "payable": false,
      "stateMutability": "pure",
      "type": "function",
      "signature": "0xadebf6f2"
    },
    {
      "constant": false,
      "inputs": [
        {
          "name": "_uri",
          "type": "string"
        },
        {
          "name": "_isNF",
          "type": "bool"
        }
      ],
      "name": "create",
      "outputs": [
        {
          "name": "_type",
          "type": "uint256"
        }
      ],
      "payable": false,
      "stateMutability": "nonpayable",
      "type": "function",
      "signature": "0xcc10e401"
    },
    {
      "constant": true,
      "inputs": [
        {
          "name": "",
          "type": "uint256"
        }
      ],
      "name": "creators",
      "outputs": [
        {
          "name": "",
          "type": "address"
        }
      ],
      "payable": false,
      "stateMutability": "view",
      "type": "function",
      "signature": "0xcd53d08e"
    },
    {
      "constant": true,
      "inputs": [],
      "name": "ERC1155_RECEIVED",
      "outputs": [
        {
          "name": "",
          "type": "bytes4"
        }
      ],
      "payable": false,
      "stateMutability": "view",
      "type": "function",
      "signature": "0xe0a5c949"
    },
    {
      "constant": true,
      "inputs": [
        {
          "name": "_id",
          "type": "uint256"
        }
      ],
      "name": "isNonFungible",
      "outputs": [
        {
          "name": "",
          "type": "bool"
        }
      ],
      "payable": false,
      "stateMutability": "pure",
      "type": "function",
      "signature": "0xe44591f0"
    },
    {
      "constant": true,
      "inputs": [
        {
          "name": "_owner",
          "type": "address"
        },
        {
          "name": "_operator",
          "type": "address"
        }
      ],
      "name": "isApprovedForAll",
      "outputs": [
        {
          "name": "",
          "type": "bool"
        }
      ],
      "payable": false,
      "stateMutability": "view",
      "type": "function",
      "signature": "0xe985e9c5"
    },
    {
      "constant": false,
      "inputs": [
        {
          "name": "_from",
          "type": "address"
        },
        {
          "name": "_to",
          "type": "address"
        },
        {
          "name": "_id",
          "type": "uint256"
        },
        {
          "name": "_value",
          "type": "uint256"
        },
        {
          "name": "_data",
          "type": "bytes"
        }
      ],
      "name": "safeTransferFrom",
      "outputs": [],
      "payable": false,
      "stateMutability": "nonpayable",
      "type": "function",
      "signature": "0xf242432a"
    },
    {
      "constant": false,
      "inputs": [
        {
          "name": "newOwner",
          "type": "address"
        }
      ],
      "name": "transferOwnership",
      "outputs": [],
      "payable": false,
      "stateMutability": "nonpayable",
      "type": "function",
      "signature": "0xf2fde38b"
    },
    {
      "constant": false,
      "inputs": [
        {
          "name": "_type",
          "type": "uint256"
        },
        {
          "name": "_to",
          "type": "address[]"
        }
      ],
      "name": "mintNonFungible",
      "outputs": [],
      "payable": false,
      "stateMutability": "nonpayable",
      "type": "function",
      "signature": "0xf9419088"
    },
    {
      "constant": true,
      "inputs": [],
      "name": "ERC1155_BATCH_RECEIVED",
      "outputs": [
        {
          "name": "",
          "type": "bytes4"
        }
      ],
      "payable": false,
      "stateMutability": "view",
      "type": "function",
      "signature": "0xfc67bf1c"
    },
    {
      "anonymous": false,
      "inputs": [
        {
          "indexed": false,
          "name": "_from",
          "type": "address"
        },
        {
          "indexed": true,
          "name": "_owner",
          "type": "address"
        },
        {
          "indexed": true,
          "name": "_id",
          "type": "uint256"
        }
      ],
      "name": "SaleRequest",
      "type": "event",
      "signature": "0x756be205407f9de963c87339ccfdb4601725fe4108aa71f7c44c908a9166d70a"
    },
    {
      "anonymous": false,
      "inputs": [
        {
          "indexed": true,
          "name": "_operator",
          "type": "address"
        },
        {
          "indexed": true,
          "name": "_from",
          "type": "address"
        },
        {
          "indexed": true,
          "name": "",
          "type": "address"
        },
        {
          "indexed": false,
          "name": "_id",
          "type": "uint256"
        },
        {
          "indexed": false,
          "name": "_value",
          "type": "uint256"
        }
      ],
      "name": "TransferSingle",
      "type": "event",
      "signature": "0xc3d58168c5ae7397731d063d5bbf3d657854427343f4c083240f7aacaa2d0f62"
    },
    {
      "anonymous": false,
      "inputs": [
        {
          "indexed": true,
          "name": "_operator",
          "type": "address"
        },
        {
          "indexed": true,
          "name": "_from",
          "type": "address"
        },
        {
          "indexed": true,
          "name": "_to",
          "type": "address"
        },
        {
          "indexed": false,
          "name": "_ids",
          "type": "uint256[]"
        },
        {
          "indexed": false,
          "name": "_values",
          "type": "uint256[]"
        }
      ],
      "name": "TransferBatch",
      "type": "event",
      "signature": "0x4a39dc06d4c0dbc64b70af90fd698a233a518aa5d07e595d983b8c0526c8f7fb"
    },
    {
      "anonymous": false,
      "inputs": [
        {
          "indexed": true,
          "name": "_owner",
          "type": "address"
        },
        {
          "indexed": true,
          "name": "_operator",
          "type": "address"
        },
        {
          "indexed": false,
          "name": "_approved",
          "type": "bool"
        }
      ],
      "name": "ApprovalForAll",
      "type": "event",
      "signature": "0x17307eab39ab6107e8899845ad3d59bd9653f200f220920489ca2b5937696c31"
    },
    {
      "anonymous": false,
      "inputs": [
        {
          "indexed": false,
          "name": "_value",
          "type": "string"
        },
        {
          "indexed": true,
          "name": "_id",
          "type": "uint256"
        }
      ],
      "name": "URI",
      "type": "event",
      "signature": "0x6bb7ff708619ba0610cba295a58592e0451dee2622938c8755667688daf3529b"
    },
    {
      "anonymous": false,
      "inputs": [
        {
          "indexed": true,
          "name": "previousOwner",
          "type": "address"
        },
        {
          "indexed": true,
          "name": "newOwner",
          "type": "address"
        }
      ],
      "name": "OwnershipTransferred",
      "type": "event",
      "signature": "0x8be0079c531659141344cd1fd0a4f28419497f9722a3daafe3b4186f6b6457e0"
    },
    {
      "constant": false,
      "inputs": [],
      "name": "createAndMint",
      "outputs": [
        {
          "name": "",
          "type": "uint256"
        }
      ],
      "payable": false,
      "stateMutability": "nonpayable",
      "type": "function",
      "signature": "0x21a0a0d8"
    },
    {
      "constant": true,
      "inputs": [],
      "name": "returnBalance",
      "outputs": [
        {
          "name": "",
          "type": "uint256"
        }
      ],
      "payable": false,
      "stateMutability": "view",
      "type": "function",
      "signature": "0x900551a8"
    },
    {
      "constant": false,
      "inputs": [],
      "name": "initiatePictures",
      "outputs": [],
      "payable": false,
      "stateMutability": "nonpayable",
      "type": "function",
      "signature": "0xb34c56ee"
    },
    {
      "constant": true,
      "inputs": [],
      "name": "getPictures",
      "outputs": [
        {
          "name": "",
          "type": "uint256[]"
        }
      ],
      "payable": false,
      "stateMutability": "view",
      "type": "function",
      "signature": "0x7187d68b"
    },
    {
      "constant": true,
      "inputs": [
        {
          "name": "_nfTokens",
          "type": "uint256[]"
        }
      ],
      "name": "getOwnedPictures",
      "outputs": [
        {
          "name": "",
          "type": "address[]"
        }
      ],
      "payable": false,
      "stateMutability": "view",
      "type": "function",
      "signature": "0x31d35f60"
    },
    {
      "constant": false,
      "inputs": [
        {
          "name": "_id",
          "type": "uint256"
        }
      ],
      "name": "notify",
      "outputs": [],
      "payable": false,
      "stateMutability": "nonpayable",
      "type": "function",
      "signature": "0x98d078b4"
    },
    {
      "constant": true,
      "inputs": [
        {
          "name": "_owner",
          "type": "address"
        },
        {
          "name": "_id",
          "type": "uint256"
        }
      ],
      "name": "getBlockNum",
      "outputs": [
        {
          "name": "",
          "type": "uint256"
        }
      ],
      "payable": false,
      "stateMutability": "view",
      "type": "function",
      "signature": "0x9247fa82"
    },
    {
      "constant": false,
      "inputs": [],
      "name": "getArt",
      "outputs": [],
      "payable": false,
      "stateMutability": "nonpayable",
      "type": "function",
      "signature": "0xe38fb866"
    }
  ],
  "bytecode": "0x6080604052336000806101000a81548173ffffffffffffffffffffffffffffffffffffffff021916908373ffffffffffffffffffffffffffffffffffffffff1602179055506000809054906101000a900473ffffffffffffffffffffffffffffffffffffffff1673ffffffffffffffffffffffffffffffffffffffff16600073ffffffffffffffffffffffffffffffffffffffff167f8be0079c531659141344cd1fd0a4f28419497f9722a3daafe3b4186f6b6457e060405160405180910390a3614396806100cf6000396000f3fe608060405234801561001057600080fd5b5060043610610222576000357c010000000000000000000000000000000000000000000000000000000090048063900551a811610137578063cd53d08e116100ca578063e985e9c511610099578063e985e9c514610d69578063f242432a14610de5578063f2fde38b14610eb2578063f941908814610ef6578063fc67bf1c14610f7957610222565b8063cd53d08e14610c4f578063e0a5c94914610cbd578063e38fb86614610d19578063e44591f014610d2357610222565b8063a22cb46511610106578063a22cb46514610b16578063adebf6f214610b66578063b34c56ee14610bac578063cc10e40114610bb657610222565b8063900551a814610a265780639247fa8214610a4457806398d078b414610aa65780639cca1c6414610ad457610222565b80635e81b958116101ba5780637187d68b116101895780637187d68b1461083d5780637269a3271461089c57806378b27221146108e25780638da5cb5b146109ba5780638f32d59b14610a0457610222565b80635e81b9581461073d5780636352211e146107835780636f969c2d146107f1578063715018a61461083357610222565b80632eb2c2d6116101f65780632eb2c2d61461034e57806331d35f60146104b1578063425beb10146105be5780634e1273f41461061a57610222565b8062fdd58e1461022757806301ffc9a71461028957806308d7d469146102ee57806321a0a0d814610330575b600080fd5b6102736004803603604081101561023d57600080fd5b81019080803573ffffffffffffffffffffffffffffffffffffffff16906020019092919080359060200190929190505050610fd5565b6040518082815260200191505060405180910390f35b6102d46004803603602081101561029f57600080fd5b8101908080357bffffffffffffffffffffffffffffffffffffffffffffffffffffffff191690602001909291905050506110b9565b604051808215151515815260200191505060405180910390f35b61031a6004803603602081101561030457600080fd5b81019080803590602001909291905050506111a2565b6040518082815260200191505060405180910390f35b6103386111ba565b6040518082815260200191505060405180910390f35b6104af600480360360a081101561036457600080fd5b81019080803573ffffffffffffffffffffffffffffffffffffffff169060200190929190803573ffffffffffffffffffffffffffffffffffffffff169060200190929190803590602001906401000000008111156103c157600080fd5b8201836020820111156103d357600080fd5b803590602001918460208302840111640100000000831117156103f557600080fd5b90919293919293908035906020019064010000000081111561041657600080fd5b82018360208201111561042857600080fd5b8035906020019184602083028401116401000000008311171561044a57600080fd5b90919293919293908035906020019064010000000081111561046b57600080fd5b82018360208201111561047d57600080fd5b8035906020019184600183028401116401000000008311171561049f57600080fd5b90919293919293905050506111e4565b005b610567600480360360208110156104c757600080fd5b81019080803590602001906401000000008111156104e457600080fd5b8201836020820111156104f657600080fd5b8035906020019184602083028401116401000000008311171561051857600080fd5b919080806020026020016040519081016040528093929190818152602001838360200280828437600081840152601f19601f8201169050808301925050505050505091929192905050506119e1565b6040518080602001828103825283818151815260200191508051906020019060200280838360005b838110156105aa57808201518184015260208101905061058f565b505050509050019250505060405180910390f35b610600600480360360208110156105d457600080fd5b81019080803573ffffffffffffffffffffffffffffffffffffffff169060200190929190505050611ab0565b604051808215151515815260200191505060405180910390f35b6106e66004803603604081101561063057600080fd5b810190808035906020019064010000000081111561064d57600080fd5b82018360208201111561065f57600080fd5b8035906020019184602083028401116401000000008311171561068157600080fd5b9091929391929390803590602001906401000000008111156106a257600080fd5b8201836020820111156106b457600080fd5b803590602001918460208302840111640100000000831117156106d657600080fd5b9091929391929390505050611ad0565b6040518080602001828103825283818151815260200191508051906020019060200280838360005b8381101561072957808201518184015260208101905061070e565b505050509050019250505060405180910390f35b6107696004803603602081101561075357600080fd5b8101908080359060200190929190505050611cbf565b604051808215151515815260200191505060405180910390f35b6107af6004803603602081101561079957600080fd5b8101908080359060200190929190505050611d2e565b604051808273ffffffffffffffffffffffffffffffffffffffff1673ffffffffffffffffffffffffffffffffffffffff16815260200191505060405180910390f35b61081d6004803603602081101561080757600080fd5b8101908080359060200190929190505050611d6b565b6040518082815260200191505060405180910390f35b61083b611db0565b005b610845611e82565b6040518080602001828103825283818151815260200191508051906020019060200280838360005b8381101561088857808201518184015260208101905061086d565b505050509050019250505060405180910390f35b6108c8600480360360208110156108b257600080fd5b8101908080359060200190929190505050611fce565b604051808215151515815260200191505060405180910390f35b6109b8600480360360608110156108f857600080fd5b81019080803590602001909291908035906020019064010000000081111561091f57600080fd5b82018360208201111561093157600080fd5b8035906020019184602083028401116401000000008311171561095357600080fd5b90919293919293908035906020019064010000000081111561097457600080fd5b82018360208201111561098657600080fd5b803590602001918460208302840111640100000000831117156109a857600080fd5b909192939192939050505061203c565b005b6109c2612269565b604051808273ffffffffffffffffffffffffffffffffffffffff1673ffffffffffffffffffffffffffffffffffffffff16815260200191505060405180910390f35b610a0c612292565b604051808215151515815260200191505060405180910390f35b610a2e6122e9565b6040518082815260200191505060405180910390f35b610a9060048036036040811015610a5a57600080fd5b81019080803573ffffffffffffffffffffffffffffffffffffffff169060200190929190803590602001909291905050506123d8565b6040518082815260200191505060405180910390f35b610ad260048036036020811015610abc57600080fd5b810190808035906020019092919050505061243b565b005b610b0060048036036020811015610aea57600080fd5b8101908080359060200190929190505050612553565b6040518082815260200191505060405180910390f35b610b6460048036036040811015610b2c57600080fd5b81019080803573ffffffffffffffffffffffffffffffffffffffff169060200190929190803515159060200190929190505050612591565b005b610b9260048036036020811015610b7c57600080fd5b8101908080359060200190929190505050612692565b604051808215151515815260200191505060405180910390f35b610bb46126c0565b005b610c3960048036036040811015610bcc57600080fd5b8101908080359060200190640100000000811115610be957600080fd5b820183602082011115610bfb57600080fd5b80359060200191846001830284011164010000000083111715610c1d57600080fd5b9091929391929390803515159060200190929190505050612d84565b6040518082815260200191505060405180910390f35b610c7b60048036036020811015610c6557600080fd5b8101908080359060200190929190505050612f1b565b604051808273ffffffffffffffffffffffffffffffffffffffff1673ffffffffffffffffffffffffffffffffffffffff16815260200191505060405180910390f35b610cc5612f4e565b60405180827bffffffffffffffffffffffffffffffffffffffffffffffffffffffff19167bffffffffffffffffffffffffffffffffffffffffffffffffffffffff1916815260200191505060405180910390f35b610d21612f75565b005b610d4f60048036036020811015610d3957600080fd5b8101908080359060200190929190505050613245565b604051808215151515815260200191505060405180910390f35b610dcb60048036036040811015610d7f57600080fd5b81019080803573ffffffffffffffffffffffffffffffffffffffff169060200190929190803573ffffffffffffffffffffffffffffffffffffffff169060200190929190505050613273565b604051808215151515815260200191505060405180910390f35b610eb0600480360360a0811015610dfb57600080fd5b81019080803573ffffffffffffffffffffffffffffffffffffffff169060200190929190803573ffffffffffffffffffffffffffffffffffffffff169060200190929190803590602001909291908035906020019092919080359060200190640100000000811115610e6c57600080fd5b820183602082011115610e7e57600080fd5b80359060200191846001830284011164010000000083111715610ea057600080fd5b9091929391929390505050613307565b005b610ef460048036036020811015610ec857600080fd5b81019080803573ffffffffffffffffffffffffffffffffffffffff1690602001909291905050506139d6565b005b610f7760048036036040811015610f0c57600080fd5b810190808035906020019092919080359060200190640100000000811115610f3357600080fd5b820183602082011115610f4557600080fd5b80359060200191846020830284011164010000000083111715610f6757600080fd5b90919293919293905050506139f5565b005b610f81613e1f565b60405180827bffffffffffffffffffffffffffffffffffffffffffffffffffffffff19167bffffffffffffffffffffffffffffffffffffffffffffffffffffffff1916815260200191505060405180910390f35b6000610fe082611cbf565b1561105f578273ffffffffffffffffffffffffffffffffffffffff166003600084815260200190815260200160002060009054906101000a900473ffffffffffffffffffffffffffffffffffffffff1673ffffffffffffffffffffffffffffffffffffffff1614611052576000611055565b60015b60ff1690506110b3565b6001600083815260200190815260200160002060008473ffffffffffffffffffffffffffffffffffffffff1673ffffffffffffffffffffffffffffffffffffffff1681526020019081526020016000205490505b92915050565b60006301ffc9a77c0100000000000000000000000000000000000000000000000000000000027bffffffffffffffffffffffffffffffffffffffffffffffffffffffff1916827bffffffffffffffffffffffffffffffffffffffffffffffffffffffff1916148061118a575063d9b67a267c0100000000000000000000000000000000000000000000000000000000027bffffffffffffffffffffffffffffffffffffffffffffffffffffffff1916827bffffffffffffffffffffffffffffffffffffffffffffffffffffffff1916145b15611198576001905061119d565b600090505b919050565b60076020528060005260406000206000915090505481565b60006111c4612292565b15156111cf57600080fd5b6111d7613e46565b6111df613f0c565b905090565b600073ffffffffffffffffffffffffffffffffffffffff168773ffffffffffffffffffffffffffffffffffffffff1614151515611289576040517f08c379a000000000000000000000000000000000000000000000000000000000815260040180806020018281038252601b8152602001807f63616e6e6f742073656e6420746f207a65726f2061646472657373000000000081525060200191505060405180910390fd5b8383905086869050141515611306576040517f08c379a00000000000000000000000000000000000000000000000000000000081526004018080602001828103825260178152602001807f4172726179206c656e677468206d757374206d6174636800000000000000000081525060200191505060405180910390fd5b3373ffffffffffffffffffffffffffffffffffffffff168873ffffffffffffffffffffffffffffffffffffffff1614806113cd575060011515600260008a73ffffffffffffffffffffffffffffffffffffffff1673ffffffffffffffffffffffffffffffffffffffff16815260200190815260200160002060003373ffffffffffffffffffffffffffffffffffffffff1673ffffffffffffffffffffffffffffffffffffffff16815260200190815260200160002060009054906101000a900460ff161515145b1515611424576040517f08c379a000000000000000000000000000000000000000000000000000000000815260040180806020018281038252602f8152602001806142c2602f913960400191505060405180910390fd5b60008090505b868690508110156116b5576000878783818110151561144557fe5b9050602002013590506000868684818110151561145e57fe5b90506020020135905061147082613245565b15611539578a73ffffffffffffffffffffffffffffffffffffffff166003600084815260200190815260200160002060009054906101000a900473ffffffffffffffffffffffffffffffffffffffff1673ffffffffffffffffffffffffffffffffffffffff161415156114e257600080fd5b896003600084815260200190815260200160002060006101000a81548173ffffffffffffffffffffffffffffffffffffffff021916908373ffffffffffffffffffffffffffffffffffffffff1602179055506116a8565b61159c816001600085815260200190815260200160002060008e73ffffffffffffffffffffffffffffffffffffffff1673ffffffffffffffffffffffffffffffffffffffff1681526020019081526020016000205461414290919063ffffffff16565b6001600084815260200190815260200160002060008d73ffffffffffffffffffffffffffffffffffffffff1673ffffffffffffffffffffffffffffffffffffffff168152602001908152602001600020819055506116536001600084815260200190815260200160002060008c73ffffffffffffffffffffffffffffffffffffffff1673ffffffffffffffffffffffffffffffffffffffff168152602001908152602001600020548261415b90919063ffffffff16565b6001600084815260200190815260200160002060008c73ffffffffffffffffffffffffffffffffffffffff1673ffffffffffffffffffffffffffffffffffffffff168152602001908152602001600020819055505b505080600101905061142a565b508673ffffffffffffffffffffffffffffffffffffffff168873ffffffffffffffffffffffffffffffffffffffff163373ffffffffffffffffffffffffffffffffffffffff167f4a39dc06d4c0dbc64b70af90fd698a233a518aa5d07e595d983b8c0526c8f7fb898989896040518080602001806020018381038352878782818152602001925060200280828437600081840152601f19601f8201169050808301925050508381038252858582818152602001925060200280828437600081840152601f19601f820116905080830192505050965050505050505060405180910390a46117b78773ffffffffffffffffffffffffffffffffffffffff16614177565b156119d75763bc197c817c0100000000000000000000000000000000000000000000000000000000027bffffffffffffffffffffffffffffffffffffffffffffffffffffffff19168773ffffffffffffffffffffffffffffffffffffffff1663bc197c81338b8a8a8a8a8a8a6040518963ffffffff167c0100000000000000000000000000000000000000000000000000000000028152600401808973ffffffffffffffffffffffffffffffffffffffff1673ffffffffffffffffffffffffffffffffffffffff1681526020018873ffffffffffffffffffffffffffffffffffffffff1673ffffffffffffffffffffffffffffffffffffffff16815260200180602001806020018060200184810384528a8a82818152602001925060200280828437600081840152601f19601f8201169050808301925050508481038352888882818152602001925060200280828437600081840152601f19601f8201169050808301925050508481038252868682818152602001925080828437600081840152601f19601f8201169050808301925050509b505050505050505050505050602060405180830381600087803b15801561197057600080fd5b505af1158015611984573d6000803e3d6000fd5b505050506040513d602081101561199a57600080fd5b81019080805190602001909291905050507bffffffffffffffffffffffffffffffffffffffffffffffffffffffff19161415156119d657600080fd5b5b5050505050505050565b6060808251604051908082528060200260200182016040528015611a145781602001602082028038833980820191505090505b50905060008090505b8351811015611aa657600060018583815181101515611a3857fe5b90602001906020020151179050611a4e81611d2e565b8383815181101515611a5c57fe5b9060200190602002019073ffffffffffffffffffffffffffffffffffffffff16908173ffffffffffffffffffffffffffffffffffffffff1681525050508080600101915050611a1d565b5080915050919050565b60086020528060005260406000206000915054906101000a900460ff1681565b60608282905085859050141515611ae657600080fd5b606085859050604051908082528060200260200182016040528015611b1a5781602001602082028038833980820191505090505b50905060008090505b86869050811015611cb25760008585838181101515611b3e57fe5b905060200201359050611b5081611cbf565b15611c0f578787838181101515611b6357fe5b9050602002013573ffffffffffffffffffffffffffffffffffffffff1673ffffffffffffffffffffffffffffffffffffffff166003600083815260200190815260200160002060009054906101000a900473ffffffffffffffffffffffffffffffffffffffff1673ffffffffffffffffffffffffffffffffffffffff1614611bec576000611bef565b60015b60ff168383815181101515611c0057fe5b90602001906020020181815250505b6001600082815260200190815260200160002060008989858181101515611c3257fe5b9050602002013573ffffffffffffffffffffffffffffffffffffffff1673ffffffffffffffffffffffffffffffffffffffff1673ffffffffffffffffffffffffffffffffffffffff168152602001908152602001600020548383815181101515611c9857fe5b906020019060200201818152505050806001019050611b23565b5080915050949350505050565b60007f8000000000000000000000000000000000000000000000000000000000000000808316148015611d27575060007fffffffffffffffffffffffffffffffffffffffffffffffffffffffffffffffff6fffffffffffffffffffffffffffffffff16831614155b9050919050565b60006003600083815260200190815260200160002060009054906101000a900473ffffffffffffffffffffffffffffffffffffffff169050919050565b600060807fffffffffffffffffffffffffffffffffffffffffffffffffffffffffffffffff6fffffffffffffffffffffffffffffffff169060020a0282169050919050565b611db8612292565b1515611dc357600080fd5b600073ffffffffffffffffffffffffffffffffffffffff166000809054906101000a900473ffffffffffffffffffffffffffffffffffffffff1673ffffffffffffffffffffffffffffffffffffffff167f8be0079c531659141344cd1fd0a4f28419497f9722a3daafe3b4186f6b6457e060405160405180910390a360008060006101000a81548173ffffffffffffffffffffffffffffffffffffffff021916908373ffffffffffffffffffffffffffffffffffffffff160217905550565b60606000600554141515611f72576060600554604051908082528060200260200182016040528015611ec35781602001602082028038833980820191505090505b5090506000600290505b60055481111515611f68576080819060020a028260028303815181101515611ef157fe5b90602001906020020181815250507f80000000000000000000000000000000000000000000000000000000000000008260028303815181101515611f3157fe5b90602001906020020151178260028303815181101515611f4d57fe5b90602001906020020181815250508080600101915050611ecd565b5080915050611fcb565b60606001604051908082528060200260200182016040528015611fa45781602001602082028038833980820191505090505b509050600a816000815181101515611fb857fe5b9060200190602002018181525050809150505b90565b60007f8000000000000000000000000000000000000000000000000000000000000000808316148015612035575060007fffffffffffffffffffffffffffffffffffffffffffffffffffffffffffffffff6fffffffffffffffffffffffffffffffff168316145b9050919050565b843373ffffffffffffffffffffffffffffffffffffffff166006600083815260200190815260200160002060009054906101000a900473ffffffffffffffffffffffffffffffffffffffff1673ffffffffffffffffffffffffffffffffffffffff161415156120aa57600080fd5b6120b386612692565b15156120be57600080fd5b60008090505b8585905081101561226057600086868381811015156120df57fe5b9050602002013573ffffffffffffffffffffffffffffffffffffffff1690506000858584818110151561210e57fe5b90506020020135905061217a600160008b815260200190815260200160002060008473ffffffffffffffffffffffffffffffffffffffff1673ffffffffffffffffffffffffffffffffffffffff168152602001908152602001600020548261415b90919063ffffffff16565b600160008b815260200190815260200160002060008473ffffffffffffffffffffffffffffffffffffffff1673ffffffffffffffffffffffffffffffffffffffff168152602001908152602001600020819055508173ffffffffffffffffffffffffffffffffffffffff16600073ffffffffffffffffffffffffffffffffffffffff163373ffffffffffffffffffffffffffffffffffffffff167fc3d58168c5ae7397731d063d5bbf3d657854427343f4c083240f7aacaa2d0f628c85604051808381526020018281526020019250505060405180910390a450508060010190506120c4565b50505050505050565b60008060009054906101000a900473ffffffffffffffffffffffffffffffffffffffff16905090565b60008060009054906101000a900473ffffffffffffffffffffffffffffffffffffffff1673ffffffffffffffffffffffffffffffffffffffff163373ffffffffffffffffffffffffffffffffffffffff1614905090565b600080608060019060020a0290503073ffffffffffffffffffffffffffffffffffffffff1662fdd58e33836040518363ffffffff167c0100000000000000000000000000000000000000000000000000000000028152600401808373ffffffffffffffffffffffffffffffffffffffff1673ffffffffffffffffffffffffffffffffffffffff1681526020018281526020019250505060206040518083038186803b15801561239757600080fd5b505afa1580156123ab573d6000803e3d6000fd5b505050506040513d60208110156123c157600080fd5b810190808051906020019092919050505091505090565b600080600183179050600460008573ffffffffffffffffffffffffffffffffffffffff1673ffffffffffffffffffffffffffffffffffffffff16815260200190815260200160002060008281526020019081526020016000205491505092915050565b60006080829060020a0290507f800000000000000000000000000000000000000000000000000000000000000081179050600060018217905061247d82613245565b151561248857600080fd5b3373ffffffffffffffffffffffffffffffffffffffff166124a882611d2e565b73ffffffffffffffffffffffffffffffffffffffff16141515156124cb57600080fd5b816124d582611d2e565b73ffffffffffffffffffffffffffffffffffffffff167f756be205407f9de963c87339ccfdb4601725fe4108aa71f7c44c908a9166d70a33604051808273ffffffffffffffffffffffffffffffffffffffff1673ffffffffffffffffffffffffffffffffffffffff16815260200191505060405180910390a3505050565b60007fffffffffffffffffffffffffffffffffffffffffffffffffffffffffffffffff6fffffffffffffffffffffffffffffffff1682169050919050565b80600260003373ffffffffffffffffffffffffffffffffffffffff1673ffffffffffffffffffffffffffffffffffffffff16815260200190815260200160002060008473ffffffffffffffffffffffffffffffffffffffff1673ffffffffffffffffffffffffffffffffffffffff16815260200190815260200160002060006101000a81548160ff0219169083151502179055508173ffffffffffffffffffffffffffffffffffffffff163373ffffffffffffffffffffffffffffffffffffffff167f17307eab39ab6107e8899845ad3d59bd9653f200f220920489ca2b5937696c3183604051808215151515815260200191505060405180910390a35050565b6000807f80000000000000000000000000000000000000000000000000000000000000008316149050919050565b6126c8612292565b15156126d357600080fd5b60608060405190810160405280603d815260200161432e603d9139905060608060405190810160405280603d81526020016142f1603d9139905060608060405190810160405280603d8152602001614285603d9139905060003073ffffffffffffffffffffffffffffffffffffffff1663cc10e4018560016040518363ffffffff167c0100000000000000000000000000000000000000000000000000000000028152600401808060200183151515158152602001828103825284818151815260200191508051906020019080838360005b838110156127c05780820151818401526020810190506127a5565b50505050905090810190601f1680156127ed5780820380516001836020036101000a031916815260200191505b509350505050602060405180830381600087803b15801561280d57600080fd5b505af1158015612821573d6000803e3d6000fd5b505050506040513d602081101561283757600080fd5b8101908080519060200190929190505050905060003073ffffffffffffffffffffffffffffffffffffffff1663cc10e4018560016040518363ffffffff167c0100000000000000000000000000000000000000000000000000000000028152600401808060200183151515158152602001828103825284818151815260200191508051906020019080838360005b838110156128e05780820151818401526020810190506128c5565b50505050905090810190601f16801561290d5780820380516001836020036101000a031916815260200191505b509350505050602060405180830381600087803b15801561292d57600080fd5b505af1158015612941573d6000803e3d6000fd5b505050506040513d602081101561295757600080fd5b8101908080519060200190929190505050905060003073ffffffffffffffffffffffffffffffffffffffff1663cc10e4018560016040518363ffffffff167c0100000000000000000000000000000000000000000000000000000000028152600401808060200183151515158152602001828103825284818151815260200191508051906020019080838360005b83811015612a005780820151818401526020810190506129e5565b50505050905090810190601f168015612a2d5780820380516001836020036101000a031916815260200191505b509350505050602060405180830381600087803b158015612a4d57600080fd5b505af1158015612a61573d6000803e3d6000fd5b505050506040513d6020811015612a7757600080fd5b8101908080519060200190929190505050905060606001604051908082528060200260200182016040528015612abc5781602001602082028038833980820191505090505b50905033816000815181101515612acf57fe5b9060200190602002019073ffffffffffffffffffffffffffffffffffffffff16908173ffffffffffffffffffffffffffffffffffffffff16815250503073ffffffffffffffffffffffffffffffffffffffff1663f941908885836040518363ffffffff167c01000000000000000000000000000000000000000000000000000000000281526004018083815260200180602001828103825283818151815260200191508051906020019060200280838360005b83811015612b9d578082015181840152602081019050612b82565b505050509050019350505050600060405180830381600087803b158015612bc357600080fd5b505af1158015612bd7573d6000803e3d6000fd5b505050503073ffffffffffffffffffffffffffffffffffffffff1663f941908884836040518363ffffffff167c01000000000000000000000000000000000000000000000000000000000281526004018083815260200180602001828103825283818151815260200191508051906020019060200280838360005b83811015612c6d578082015181840152602081019050612c52565b505050509050019350505050600060405180830381600087803b158015612c9357600080fd5b505af1158015612ca7573d6000803e3d6000fd5b505050503073ffffffffffffffffffffffffffffffffffffffff1663f941908883836040518363ffffffff167c01000000000000000000000000000000000000000000000000000000000281526004018083815260200180602001828103825283818151815260200191508051906020019060200280838360005b83811015612d3d578082015181840152602081019050612d22565b505050509050019350505050600060405180830381600087803b158015612d6357600080fd5b505af1158015612d77573d6000803e3d6000fd5b5050505050505050505050565b600060806005600081546001019190508190559060020a0290508115612dca577f8000000000000000000000000000000000000000000000000000000000000000811790505b336006600083815260200190815260200160002060006101000a81548173ffffffffffffffffffffffffffffffffffffffff021916908373ffffffffffffffffffffffffffffffffffffffff160217905550600073ffffffffffffffffffffffffffffffffffffffff16600073ffffffffffffffffffffffffffffffffffffffff163373ffffffffffffffffffffffffffffffffffffffff167fc3d58168c5ae7397731d063d5bbf3d657854427343f4c083240f7aacaa2d0f62846000604051808381526020018281526020019250505060405180910390a46000848490501115612f1457807f6bb7ff708619ba0610cba295a58592e0451dee2622938c8755667688daf3529b858560405180806020018281038252848482818152602001925080828437600081840152601f19601f820116905080830192505050935050505060405180910390a25b9392505050565b60066020528060005260406000206000915054906101000a900473ffffffffffffffffffffffffffffffffffffffff1681565b63f23a6e617c01000000000000000000000000000000000000000000000000000000000281565b60006001905060006080829060020a02905060006006600083815260200190815260200160002060009054906101000a900473ffffffffffffffffffffffffffffffffffffffff169050600860003373ffffffffffffffffffffffffffffffffffffffff1673ffffffffffffffffffffffffffffffffffffffff16815260200190815260200160002060009054906101000a900460ff1615151561301857600080fd5b600a6001600084815260200190815260200160002060008373ffffffffffffffffffffffffffffffffffffffff1673ffffffffffffffffffffffffffffffffffffffff168152602001908152602001600020541015151561307857600080fd5b6130dc600a6001600085815260200190815260200160002060008473ffffffffffffffffffffffffffffffffffffffff1673ffffffffffffffffffffffffffffffffffffffff1681526020019081526020016000205461414290919063ffffffff16565b6001600084815260200190815260200160002060008373ffffffffffffffffffffffffffffffffffffffff1673ffffffffffffffffffffffffffffffffffffffff16815260200190815260200160002081905550613194600a6001600085815260200190815260200160002060003373ffffffffffffffffffffffffffffffffffffffff1673ffffffffffffffffffffffffffffffffffffffff1681526020019081526020016000205461415b90919063ffffffff16565b6001600084815260200190815260200160002060003373ffffffffffffffffffffffffffffffffffffffff1673ffffffffffffffffffffffffffffffffffffffff168152602001908152602001600020819055506001600860003373ffffffffffffffffffffffffffffffffffffffff1673ffffffffffffffffffffffffffffffffffffffff16815260200190815260200160002060006101000a81548160ff021916908315150217905550505050565b60007f8000000000000000000000000000000000000000000000000000000000000000808316149050919050565b6000600260008473ffffffffffffffffffffffffffffffffffffffff1673ffffffffffffffffffffffffffffffffffffffff16815260200190815260200160002060008373ffffffffffffffffffffffffffffffffffffffff1673ffffffffffffffffffffffffffffffffffffffff16815260200190815260200160002060009054906101000a900460ff16905092915050565b600073ffffffffffffffffffffffffffffffffffffffff168573ffffffffffffffffffffffffffffffffffffffff16141515156133ac576040517f08c379a000000000000000000000000000000000000000000000000000000000815260040180806020018281038252601b8152602001807f63616e6e6f742073656e6420746f207a65726f2061646472657373000000000081525060200191505060405180910390fd5b3373ffffffffffffffffffffffffffffffffffffffff168673ffffffffffffffffffffffffffffffffffffffff161480613473575060011515600260008873ffffffffffffffffffffffffffffffffffffffff1673ffffffffffffffffffffffffffffffffffffffff16815260200190815260200160002060003373ffffffffffffffffffffffffffffffffffffffff1673ffffffffffffffffffffffffffffffffffffffff16815260200190815260200160002060009054906101000a900460ff161515145b15156134ca576040517f08c379a000000000000000000000000000000000000000000000000000000000815260040180806020018281038252602f8152602001806142c2602f913960400191505060405180910390fd5b6134d384613245565b156135fa5760006001851790508673ffffffffffffffffffffffffffffffffffffffff166003600083815260200190815260200160002060009054906101000a900473ffffffffffffffffffffffffffffffffffffffff1673ffffffffffffffffffffffffffffffffffffffff1614151561354d57600080fd5b856003600083815260200190815260200160002060006101000a81548173ffffffffffffffffffffffffffffffffffffffff021916908373ffffffffffffffffffffffffffffffffffffffff16021790555043600460008873ffffffffffffffffffffffffffffffffffffffff1673ffffffffffffffffffffffffffffffffffffffff16815260200190815260200160002060008381526020019081526020016000208190555050613769565b61365d836001600087815260200190815260200160002060008973ffffffffffffffffffffffffffffffffffffffff1673ffffffffffffffffffffffffffffffffffffffff1681526020019081526020016000205461414290919063ffffffff16565b6001600086815260200190815260200160002060008873ffffffffffffffffffffffffffffffffffffffff1673ffffffffffffffffffffffffffffffffffffffff16815260200190815260200160002081905550613714836001600087815260200190815260200160002060008873ffffffffffffffffffffffffffffffffffffffff1673ffffffffffffffffffffffffffffffffffffffff1681526020019081526020016000205461415b90919063ffffffff16565b6001600086815260200190815260200160002060008773ffffffffffffffffffffffffffffffffffffffff1673ffffffffffffffffffffffffffffffffffffffff168152602001908152602001600020819055505b8473ffffffffffffffffffffffffffffffffffffffff168673ffffffffffffffffffffffffffffffffffffffff163373ffffffffffffffffffffffffffffffffffffffff167fc3d58168c5ae7397731d063d5bbf3d657854427343f4c083240f7aacaa2d0f628787604051808381526020018281526020019250505060405180910390a461380c8573ffffffffffffffffffffffffffffffffffffffff16614177565b156139ce5763f23a6e617c0100000000000000000000000000000000000000000000000000000000027bffffffffffffffffffffffffffffffffffffffffffffffffffffffff19168573ffffffffffffffffffffffffffffffffffffffff1663f23a6e613389888888886040518763ffffffff167c0100000000000000000000000000000000000000000000000000000000028152600401808773ffffffffffffffffffffffffffffffffffffffff1673ffffffffffffffffffffffffffffffffffffffff1681526020018673ffffffffffffffffffffffffffffffffffffffff1673ffffffffffffffffffffffffffffffffffffffff168152602001858152602001848152602001806020018281038252848482818152602001925080828437600081840152601f19601f820116905080830192505050975050505050505050602060405180830381600087803b15801561396757600080fd5b505af115801561397b573d6000803e3d6000fd5b505050506040513d602081101561399157600080fd5b81019080805190602001909291905050507bffffffffffffffffffffffffffffffffffffffffffffffffffffffff19161415156139cd57600080fd5b5b505050505050565b6139de612292565b15156139e957600080fd5b6139f28161418a565b50565b823373ffffffffffffffffffffffffffffffffffffffff166006600083815260200190815260200160002060009054906101000a900473ffffffffffffffffffffffffffffffffffffffff1673ffffffffffffffffffffffffffffffffffffffff16141515613a6357600080fd5b613a6c84613245565b1515613a7757600080fd5b60006001600760008781526020019081526020016000205401905060008090505b84849050811015613dd75760008585838181101515613ab357fe5b9050602002013573ffffffffffffffffffffffffffffffffffffffff169050600082840188179050816003600083815260200190815260200160002060006101000a81548173ffffffffffffffffffffffffffffffffffffffff021916908373ffffffffffffffffffffffffffffffffffffffff16021790555043600460008473ffffffffffffffffffffffffffffffffffffffff1673ffffffffffffffffffffffffffffffffffffffff1681526020019081526020016000206000838152602001908152602001600020819055508173ffffffffffffffffffffffffffffffffffffffff16600073ffffffffffffffffffffffffffffffffffffffff163373ffffffffffffffffffffffffffffffffffffffff167fc3d58168c5ae7397731d063d5bbf3d657854427343f4c083240f7aacaa2d0f62846001604051808381526020018281526020019250505060405180910390a4613c278273ffffffffffffffffffffffffffffffffffffffff16614177565b15613dca5763f23a6e617c0100000000000000000000000000000000000000000000000000000000027bffffffffffffffffffffffffffffffffffffffffffffffffffffffff19168273ffffffffffffffffffffffffffffffffffffffff1663f23a6e6133338560016040518563ffffffff167c0100000000000000000000000000000000000000000000000000000000028152600401808573ffffffffffffffffffffffffffffffffffffffff1673ffffffffffffffffffffffffffffffffffffffff1681526020018473ffffffffffffffffffffffffffffffffffffffff1673ffffffffffffffffffffffffffffffffffffffff1681526020018381526020018281526020018060200182810382526000815260200160200195505050505050602060405180830381600087803b158015613d6357600080fd5b505af1158015613d77573d6000803e3d6000fd5b505050506040513d6020811015613d8d57600080fd5b81019080805190602001909291905050507bffffffffffffffffffffffffffffffffffffffffffffffffffffffff1916141515613dc957600080fd5b5b5050806001019050613a98565b50613e0160076000878152602001908152602001600020548585905061415b90919063ffffffff16565b60076000878152602001908152602001600020819055505050505050565b63bc197c817c01000000000000000000000000000000000000000000000000000000000281565b3073ffffffffffffffffffffffffffffffffffffffff1663cc10e40160006040518263ffffffff167c010000000000000000000000000000000000000000000000000000000002815260040180806020018315151515815260200182810382526000815260200160200192505050602060405180830381600087803b158015613ece57600080fd5b505af1158015613ee2573d6000803e3d6000fd5b505050506040513d6020811015613ef857600080fd5b810190808051906020019092919050505050565b600080608060019060020a02905060606001604051908082528060200260200182016040528015613f4c5781602001602082028038833980820191505090505b5090506006600083815260200190815260200160002060009054906101000a900473ffffffffffffffffffffffffffffffffffffffff16816000815181101515613f9257fe5b9060200190602002019073ffffffffffffffffffffffffffffffffffffffff16908173ffffffffffffffffffffffffffffffffffffffff1681525050606060016040519080825280602002602001820160405280156140005781602001602082028038833980820191505090505b5090506103e881600081518110151561401557fe5b90602001906020020181815250503073ffffffffffffffffffffffffffffffffffffffff166378b272218484846040518463ffffffff167c0100000000000000000000000000000000000000000000000000000000028152600401808481526020018060200180602001838103835285818151815260200191508051906020019060200280838360005b838110156140ba57808201518184015260208101905061409f565b50505050905001838103825284818151815260200191508051906020019060200280838360005b838110156140fc5780820151818401526020810190506140e1565b5050505090500195505050505050600060405180830381600087803b15801561412457600080fd5b505af1158015614138573d6000803e3d6000fd5b5050505050505090565b600082821115151561415057fe5b818303905092915050565b6000818301905082811015151561416e57fe5b80905092915050565b600080823b905060008111915050919050565b600073ffffffffffffffffffffffffffffffffffffffff168173ffffffffffffffffffffffffffffffffffffffff16141515156141c657600080fd5b8073ffffffffffffffffffffffffffffffffffffffff166000809054906101000a900473ffffffffffffffffffffffffffffffffffffffff1673ffffffffffffffffffffffffffffffffffffffff167f8be0079c531659141344cd1fd0a4f28419497f9722a3daafe3b4186f6b6457e060405160405180910390a3806000806101000a81548173ffffffffffffffffffffffffffffffffffffffff021916908373ffffffffffffffffffffffffffffffffffffffff1602179055505056fe7b227469746c65223a2022746f6b656e33222c2022696d616765223a20222e2e2f696d616765732f332e6a7067222c202276616c7565223a202234227d4e656564206f70657261746f7220617070726f76616c20666f7220337264207061727479207472616e73666572732e7b227469746c65223a2022746f6b656e32222c2022696d616765223a20222e2e2f696d616765732f322e6a7067222c202276616c7565223a202233227d7b227469746c65223a2022746f6b656e31222c2022696d616765223a20222e2e2f696d616765732f312e6a7067222c202276616c7565223a202232227da165627a7a7230582058a6f3f32650146057cedf09b7519203e0859e9df9629e31fa0ddb242bbd1d860029",
  "source": "pragma solidity ^0.5.4;\n\nimport \"../node_modules/openzeppelin-solidity/contracts/ownership/Ownable.sol\";\nimport \"../contracts/ERC1155/ERC1155MixedFungibleMintable.sol\";\n/* import \"../contracts/ERC1155/ERC1155.sol\"; */\n/* import \"../node_modules/openzeppelin-solidity/contracts/math/SafeMath.sol\"; */\n\ncontract Gallery is Ownable, ERC1155MixedFungibleMintable{\n    using SafeMath for uint256;\n\n   mapping (address => bool) public tokenProvided;\n   uint tokenCount;\n\n   event SaleRequest(address _from, address indexed _owner, uint indexed _id);\n\n\n   /**\n    //* @dev Function to create and mint original token to the contracnt\n    */\n  function createAndMint() public onlyOwner() returns (uint){\n      createToken();\n      return mintToken();\n  }\n\n  function returnBalance() public view returns (uint) {\n      uint tokenType = uint(1) << 128;\n      return this.balanceOf(msg.sender, tokenType);\n  }\n\n  /**\n//* @dev Function to iniiate pictures\n*/\n  function initiatePictures() onlyOwner() public {\n      string memory uri1 = \"{\\\"title\\\": \\\"token1\\\", \\\"image\\\": \\\"../images/1.jpg\\\", \\\"value\\\": \\\"2\\\"}\";\n      string memory uri2 = \"{\\\"title\\\": \\\"token2\\\", \\\"image\\\": \\\"../images/2.jpg\\\", \\\"value\\\": \\\"3\\\"}\";\n      string memory uri3 = \"{\\\"title\\\": \\\"token3\\\", \\\"image\\\": \\\"../images/3.jpg\\\", \\\"value\\\": \\\"4\\\"}\";\n      uint type1 = this.create(uri1, true);\n      uint type2 = this.create(uri2, true);\n      uint type3 = this.create(uri3, true);\n      address[] memory _address = new address[](1);\n      _address[0] = msg.sender;\n      this.mintNonFungible(type1, _address);\n      this.mintNonFungible(type2, _address);\n      this.mintNonFungible(type3, _address);\n  }\n\n\n\n  /**\n   //* @dev Function to get all pictures\n   */\n  function getPictures() public view returns (uint[] memory){\n      if (nonce != 0){\n          uint[] memory nfTokens = new uint[](nonce);\n          for (uint i = 2; i <= nonce; i++){\n              nfTokens[i-2] = i << 128;\n              nfTokens[i-2] = nfTokens[i-2] | TYPE_NF_BIT;\n          }\n          return nfTokens;\n      }else{\n          uint[] memory nfTokens = new uint[](1);\n          nfTokens[0] = 10;\n          return nfTokens;\n      }\n\n  }\n\n  function getOwnedPictures(uint[] memory _nfTokens) public view returns (address[] memory){\n     address[] memory owners = new address[](_nfTokens.length);\n     for (uint i= 0; i<_nfTokens.length; i++){\n         uint tokenId = (_nfTokens[i] | 1);\n         owners[i] = ownerOf(tokenId);\n     }\n     return owners;\n  }\n\n  /**\n   //* @dev Function to create fungible token\n   */\n   function createToken() private {\n       this.create(\"\", false);\n   }\n\n   /**\n    //* @dev Function to mint fungible token to the contract\n    */\n   function mintToken() private returns (uint) {\n        uint tokenType = uint(1) << 128;\n        address[] memory toAddresses = new address[](1);\n        toAddresses[0] = creators[tokenType];\n\n        uint[] memory amount = new uint[](1);\n        amount[0] = 1000;\n\n        // mint new token and the owner gets 1000tokens\n        this.mintFungible(tokenType, toAddresses, amount);\n   }\n\n   /**\n    //* @dev Function to notify the token owner that someone wants to get the token\n    */\n   function notify(uint _id) external {\n       uint tokenId = (_id << 128);\n       tokenId = tokenId | TYPE_NF_BIT;\n       uint tokenIdForOwn = tokenId | uint(1);\n       require(isNonFungible(tokenId));\n       require(ownerOf(tokenIdForOwn) != msg.sender);\n       emit SaleRequest(msg.sender, ownerOf(tokenIdForOwn), tokenId);\n   }\n\n   function getBlockNum(address _owner, uint _id) public view returns (uint) {\n       uint id = _id | 1;\n       return blockNum[_owner][id];\n   }\n\n\n\n   /**\n    //* @dev Function to get 10 tokens from the contract. Each id can get only one time.\n    */\n   function getArt() external {\n       uint id = 1;\n       uint tokenType = id << 128;\n       address owner = creators[tokenType];\n\n       require(!tokenProvided[msg.sender]);\n       require(balances[tokenType][owner] >= 10);\n\n       balances[tokenType][owner] = balances[tokenType][owner].sub(10);\n       balances[tokenType][msg.sender] = balances[tokenType][msg.sender].add(10);\n       tokenProvided[msg.sender] = true;\n   }\n\n   //\n   // for test use\n   //\n\n\n\n\n   /* event Creators(address creator, address creatorOne);\n   event ReturnBalance(uint balance, string sign); */\n\n\n  /* function createAndMint() public onlyOwner() returns (uint){\n      createToken();\n      return mintToken();\n  } */\n\n  /* function returnBalance() public {\n    uint tokenId = uint(1) << 128;\n    uint _balance = balances[tokenId][creators[tokenId]];\n    string memory _sign = \"koregabalance\";\n    emit ReturnBalance(_balance, _sign);\n  } */\n\n\n   /* function createToken() private {\n       uint tokenType = this.create(\"\", false);\n       uint typeOne = uint(1) << 128;\n       emit Creators(creators[tokenType], creators[typeOne]);\n   }\n\n   function mintToken() private returns (uint) {\n        uint tokenType = uint(1) << 128;\n        address[] memory toAddresses = new address[](1);\n        toAddresses[0] = creators[tokenType];\n\n        uint[] memory amount = new uint[](1);\n        amount[0] = 1000;\n\n        // mint new token and the owner gets 1000tokens\n        this.mintFungible(tokenType, toAddresses, amount);\n        uint balance = balances[tokenType][creators[tokenType]];\n        return balance;\n\n   } */\n\n}\n",
  "sourcePath": "/Users/akira/ethereum/dapps/gallery/contracts/Gallery.sol",
  "compiler": {
    "name": "solc",
    "version": "0.5.4+commit.9549d8ff.Emscripten.clang"
  },
  "schemaVersion": "3.0.2",
  "updatedAt": "2019-03-18T22:44:42.261Z",
  "devdoc": {
    "methods": {
      "createAndMint()": {
        "details": "Function to create and mint original token to the contracnt"
      },
      "getArt()": {
        "details": "Function to get 10 tokens from the contract. Each id can get only one time."
      },
      "getPictures()": {
        "details": "Function to get all pictures"
      },
      "initiatePictures()": {
        "details": "Function to iniiate pictures"
      },
      "isApprovedForAll(address,address)": {
        "params": {
          "_operator": "Address of authorized operator",
          "_owner": "The owner of the Tokens"
        },
        "return": "True if the operator is approved, false if not"
      },
      "isOwner()": {
        "return": "true if `msg.sender` is the owner of the contract."
      },
      "notify(uint256)": {
        "details": "Function to notify the token owner that someone wants to get the token"
      },
      "owner()": {
        "return": "the address of the owner."
      },
      "renounceOwnership()": {
        "details": "Allows the current owner to relinquish control of the contract."
      },
      "setApprovalForAll(address,bool)": {
        "details": "MUST emit the ApprovalForAll event on success.",
        "params": {
          "_approved": "True if the operator is approved, false to revoke approval",
          "_operator": "Address to add to the set of authorized operators"
        }
      },
      "transferOwnership(address)": {
        "details": "Allows the current owner to transfer control of the contract to a newOwner.",
        "params": {
          "newOwner": "The address to transfer ownership to."
        }
      }
    }
  },
  "userdoc": {
    "methods": {
      "isApprovedForAll(address,address)": {
        "notice": "Queries the approval status of an operator for a given owner."
      },
      "renounceOwnership()": {
        "notice": "Renouncing to ownership will leave the contract without an owner. It will not be possible to call the functions with the `onlyOwner` modifier anymore."
      },
      "setApprovalForAll(address,bool)": {
        "notice": "Enable or disable approval for a third party (\"operator\") to manage all of the caller's tokens."
      }
    }
  }
}