{
  "contractName": "ERC1155MockReceiver",
  "abi": [
    {
      "constant": true,
      "inputs": [],
      "name": "lastData",
      "outputs": [
        {
          "name": "",
          "type": "bytes"
        }
      ],
      "payable": false,
      "stateMutability": "view",
      "type": "function"
    },
    {
      "constant": true,
      "inputs": [],
      "name": "shouldReject",
      "outputs": [
        {
          "name": "",
          "type": "bool"
        }
      ],
      "payable": false,
      "stateMutability": "view",
      "type": "function"
    },
    {
      "constant": true,
      "inputs": [],
      "name": "lastValue",
      "outputs": [
        {
          "name": "",
          "type": "uint256"
        }
      ],
      "payable": false,
      "stateMutability": "view",
      "type": "function"
    },
    {
      "constant": true,
      "inputs": [],
      "name": "lastOperator",
      "outputs": [
        {
          "name": "",
          "type": "address"
        }
      ],
      "payable": false,
      "stateMutability": "view",
      "type": "function"
    },
    {
      "constant": true,
      "inputs": [],
      "name": "lastFrom",
      "outputs": [
        {
          "name": "",
          "type": "address"
        }
      ],
      "payable": false,
      "stateMutability": "view",
      "type": "function"
    },
    {
      "constant": true,
      "inputs": [],
      "name": "NOT_ERC1155_RECEIVED",
      "outputs": [
        {
          "name": "",
          "type": "bytes4"
        }
      ],
      "payable": false,
      "stateMutability": "view",
      "type": "function"
    },
    {
      "constant": true,
      "inputs": [],
      "name": "lastId",
      "outputs": [
        {
          "name": "",
          "type": "uint256"
        }
      ],
      "payable": false,
      "stateMutability": "view",
      "type": "function"
    },
    {
      "constant": true,
      "inputs": [],
      "name": "ERC1155_RECEIVED",
      "outputs": [
        {
          "name": "",
          "type": "bytes4"
        }
      ],
      "payable": false,
      "stateMutability": "view",
      "type": "function"
    },
    {
      "constant": true,
      "inputs": [],
      "name": "ERC1155_BATCH_RECEIVED",
      "outputs": [
        {
          "name": "",
          "type": "bytes4"
        }
      ],
      "payable": false,
      "stateMutability": "view",
      "type": "function"
    },
    {
      "constant": false,
      "inputs": [
        {
          "name": "_value",
          "type": "bool"
        }
      ],
      "name": "setShouldReject",
      "outputs": [],
      "payable": false,
      "stateMutability": "nonpayable",
      "type": "function"
    },
    {
      "constant": false,
      "inputs": [
        {
          "name": "_operator",
          "type": "address"
        },
        {
          "name": "_from",
          "type": "address"
        },
        {
          "name": "_id",
          "type": "uint256"
        },
        {
          "name": "_value",
          "type": "uint256"
        },
        {
          "name": "_data",
          "type": "bytes"
        }
      ],
      "name": "onERC1155Received",
      "outputs": [
        {
          "name": "",
          "type": "bytes4"
        }
      ],
      "payable": false,
      "stateMutability": "nonpayable",
      "type": "function"
    },
    {
      "constant": false,
      "inputs": [
        {
          "name": "_operator",
          "type": "address"
        },
        {
          "name": "_from",
          "type": "address"
        },
        {
          "name": "_ids",
          "type": "uint256[]"
        },
        {
          "name": "_values",
          "type": "uint256[]"
        },
        {
          "name": "_data",
          "type": "bytes"
        }
      ],
      "name": "onERC1155BatchReceived",
      "outputs": [
        {
          "name": "",
          "type": "bytes4"
        }
      ],
      "payable": false,
      "stateMutability": "nonpayable",
      "type": "function"
    }
  ],
  "bytecode": "0x608060405234801561001057600080fd5b50610b2e806100206000396000f3fe608060405234801561001057600080fd5b50600436106100d0576000357c010000000000000000000000000000000000000000000000000000000090048063a175b6381161008e578063a175b63814610288578063bc197c81146102b8578063c1292cc31461046d578063e0a5c9491461048b578063f23a6e61146104e7578063fc67bf1c14610606576100d0565b80626e75ec146100d55780631dbb938114610158578063431838341461017a5780636eb3cd491461019857806380443378146101e25780639568e1361461022c575b600080fd5b6100dd610662565b6040518080602001828103825283818151815260200191508051906020019080838360005b8381101561011d578082015181840152602081019050610102565b50505050905090810190601f16801561014a5780820380516001836020036101000a031916815260200191505b509250505060405180910390f35b610160610700565b604051808215151515815260200191505060405180910390f35b610182610712565b6040518082815260200191505060405180910390f35b6101a0610718565b604051808273ffffffffffffffffffffffffffffffffffffffff1673ffffffffffffffffffffffffffffffffffffffff16815260200191505060405180910390f35b6101ea61073e565b604051808273ffffffffffffffffffffffffffffffffffffffff1673ffffffffffffffffffffffffffffffffffffffff16815260200191505060405180910390f35b610234610764565b60405180827bffffffffffffffffffffffffffffffffffffffffffffffffffffffff19167bffffffffffffffffffffffffffffffffffffffffffffffffffffffff1916815260200191505060405180910390f35b6102b66004803603602081101561029e57600080fd5b8101908080351515906020019092919050505061078b565b005b610419600480360360a08110156102ce57600080fd5b81019080803573ffffffffffffffffffffffffffffffffffffffff169060200190929190803573ffffffffffffffffffffffffffffffffffffffff1690602001909291908035906020019064010000000081111561032b57600080fd5b82018360208201111561033d57600080fd5b8035906020019184602083028401116401000000008311171561035f57600080fd5b90919293919293908035906020019064010000000081111561038057600080fd5b82018360208201111561039257600080fd5b803590602001918460208302840111640100000000831117156103b457600080fd5b9091929391929390803590602001906401000000008111156103d557600080fd5b8201836020820111156103e757600080fd5b8035906020019184600183028401116401000000008311171561040957600080fd5b90919293919293905050506107a7565b60405180827bffffffffffffffffffffffffffffffffffffffffffffffffffffffff19167bffffffffffffffffffffffffffffffffffffffffffffffffffffffff1916815260200191505060405180910390f35b6104756108ee565b6040518082815260200191505060405180910390f35b6104936108f4565b60405180827bffffffffffffffffffffffffffffffffffffffffffffffffffffffff19167bffffffffffffffffffffffffffffffffffffffffffffffffffffffff1916815260200191505060405180910390f35b6105b2600480360360a08110156104fd57600080fd5b81019080803573ffffffffffffffffffffffffffffffffffffffff169060200190929190803573ffffffffffffffffffffffffffffffffffffffff16906020019092919080359060200190929190803590602001909291908035906020019064010000000081111561056e57600080fd5b82018360208201111561058057600080fd5b803590602001918460018302840111640100000000831117156105a257600080fd5b909192939192939050505061091b565b60405180827bffffffffffffffffffffffffffffffffffffffffffffffffffffffff19167bffffffffffffffffffffffffffffffffffffffffffffffffffffffff1916815260200191505060405180910390f35b61060e610a36565b60405180827bffffffffffffffffffffffffffffffffffffffffffffffffffffffff19167bffffffffffffffffffffffffffffffffffffffffffffffffffffffff1916815260200191505060405180910390f35b60018054600181600116156101000203166002900480601f0160208091040260200160405190810160405280929190818152602001828054600181600116156101000203166002900480156106f85780601f106106cd576101008083540402835291602001916106f8565b820191906000526020600020905b8154815290600101906020018083116106db57829003601f168201915b505050505081565b6000809054906101000a900460ff1681565b60055481565b600260009054906101000a900473ffffffffffffffffffffffffffffffffffffffff1681565b600360009054906101000a900473ffffffffffffffffffffffffffffffffffffffff1681565b63a23a6e607c01000000000000000000000000000000000000000000000000000000000281565b806000806101000a81548160ff02191690831515021790555050565b600088600260006101000a81548173ffffffffffffffffffffffffffffffffffffffff021916908373ffffffffffffffffffffffffffffffffffffffff16021790555087600360006101000a81548173ffffffffffffffffffffffffffffffffffffffff021916908373ffffffffffffffffffffffffffffffffffffffff16021790555086866000818110151561083a57fe5b9050602002013560048190555084846000818110151561085657fe5b90506020020135600581905550828260019190610874929190610a5d565b50600115156000809054906101000a900460ff16151514156108bb5763a23a6e607c01000000000000000000000000000000000000000000000000000000000290506108e2565b63bc197c817c01000000000000000000000000000000000000000000000000000000000290505b98975050505050505050565b60045481565b63f23a6e617c01000000000000000000000000000000000000000000000000000000000281565b600086600260006101000a81548173ffffffffffffffffffffffffffffffffffffffff021916908373ffffffffffffffffffffffffffffffffffffffff16021790555085600360006101000a81548173ffffffffffffffffffffffffffffffffffffffff021916908373ffffffffffffffffffffffffffffffffffffffff16021790555084600481905550836005819055508282600191906109be929190610a5d565b50600115156000809054906101000a900460ff1615151415610a055763a23a6e607c0100000000000000000000000000000000000000000000000000000000029050610a2c565b63f23a6e617c01000000000000000000000000000000000000000000000000000000000290505b9695505050505050565b63bc197c817c01000000000000000000000000000000000000000000000000000000000281565b828054600181600116156101000203166002900490600052602060002090601f016020900481019282601f10610a9e57803560ff1916838001178555610acc565b82800160010185558215610acc579182015b82811115610acb578235825591602001919060010190610ab0565b5b509050610ad99190610add565b5090565b610aff91905b80821115610afb576000816000905550600101610ae3565b5090565b9056fea165627a7a723058202d478b26351dfa2047a0f2ab5e7ad383070b2e6f7125dff76ecede61e35a23a80029",
  "source": "pragma solidity ^0.5.4;\n\n// Contract to test safe transfer behavior.\ncontract ERC1155MockReceiver {\n    bytes4 constant public ERC1155_RECEIVED = 0xf23a6e61;\n    bytes4 constant public ERC1155_BATCH_RECEIVED = 0xbc197c81;\n    bytes4 constant public NOT_ERC1155_RECEIVED = 0xa23a6e60; // Some random value\n\n    // Keep values from last received contract.\n    bool public shouldReject;\n\n    bytes public lastData;\n    address public lastOperator;\n    address public lastFrom;\n    uint256 public lastId;\n    uint256 public lastValue;\n\n    function setShouldReject(bool _value) public {\n        shouldReject = _value;\n    }\n\n    function onERC1155Received(address _operator, address _from, uint256 _id, uint256 _value, bytes calldata _data) external returns(bytes4) {\n        lastOperator = _operator;\n        lastFrom = _from;\n        lastId = _id;\n        lastValue = _value;\n        lastData = _data;\n        if (shouldReject == true) {\n            return NOT_ERC1155_RECEIVED;\n        } else {\n            return ERC1155_RECEIVED;\n        }\n    }\n\n    function onERC1155BatchReceived(address _operator, address _from, uint256[] calldata _ids, uint256[] calldata _values, bytes calldata _data) external returns(bytes4) {\n        lastOperator = _operator;\n        lastFrom = _from;\n        lastId = _ids[0];\n        lastValue = _values[0];\n        lastData = _data;\n        if (shouldReject == true) {\n            return NOT_ERC1155_RECEIVED;\n        } else {\n            return ERC1155_BATCH_RECEIVED;\n        }\n    }\n}\n",
  "sourcePath": "/Users/akira/ethereum/dapps/gallery/contracts/ERC1155/ERC1155MockReceiver.sol",
  "compiler": {
    "name": "solc",
    "version": "0.5.4+commit.9549d8ff.Emscripten.clang"
  },
  "schemaVersion": "3.0.2",
  "updatedAt": "2019-03-12T18:35:14.573Z",
  "devdoc": {
    "methods": {}
  },
  "userdoc": {
    "methods": {}
  }
}