{
  "contractName": "Gallery",
  "abi": [
    {
      "constant": true,
      "inputs": [
        {
          "name": "_owner",
          "type": "address"
        },
        {
          "name": "_id",
          "type": "uint256"
        }
      ],
      "name": "balanceOf",
      "outputs": [
        {
          "name": "",
          "type": "uint256"
        }
      ],
      "payable": false,
      "stateMutability": "view",
      "type": "function",
      "signature": "0x00fdd58e"
    },
    {
      "constant": true,
      "inputs": [
        {
          "name": "_interfaceId",
          "type": "bytes4"
        }
      ],
      "name": "supportsInterface",
      "outputs": [
        {
          "name": "",
          "type": "bool"
        }
      ],
      "payable": false,
      "stateMutability": "view",
      "type": "function",
      "signature": "0x01ffc9a7"
    },
    {
      "constant": true,
      "inputs": [
        {
          "name": "",
          "type": "uint256"
        }
      ],
      "name": "maxIndex",
      "outputs": [
        {
          "name": "",
          "type": "uint256"
        }
      ],
      "payable": false,
      "stateMutability": "view",
      "type": "function",
      "signature": "0x08d7d469"
    },
    {
      "constant": false,
      "inputs": [
        {
          "name": "_from",
          "type": "address"
        },
        {
          "name": "_to",
          "type": "address"
        },
        {
          "name": "_ids",
          "type": "uint256[]"
        },
        {
          "name": "_values",
          "type": "uint256[]"
        },
        {
          "name": "_data",
          "type": "bytes"
        }
      ],
      "name": "safeBatchTransferFrom",
      "outputs": [],
      "payable": false,
      "stateMutability": "nonpayable",
      "type": "function",
      "signature": "0x2eb2c2d6"
    },
    {
      "constant": true,
      "inputs": [
        {
          "name": "",
          "type": "address"
        }
      ],
      "name": "tokenProvided",
      "outputs": [
        {
          "name": "",
          "type": "bool"
        }
      ],
      "payable": false,
      "stateMutability": "view",
      "type": "function",
      "signature": "0x425beb10"
    },
    {
      "constant": true,
      "inputs": [
        {
          "name": "_owners",
          "type": "address[]"
        },
        {
          "name": "_ids",
          "type": "uint256[]"
        }
      ],
      "name": "balanceOfBatch",
      "outputs": [
        {
          "name": "",
          "type": "uint256[]"
        }
      ],
      "payable": false,
      "stateMutability": "view",
      "type": "function",
      "signature": "0x4e1273f4"
    },
    {
      "constant": true,
      "inputs": [
        {
          "name": "_id",
          "type": "uint256"
        }
      ],
      "name": "isNonFungibleItem",
      "outputs": [
        {
          "name": "",
          "type": "bool"
        }
      ],
      "payable": false,
      "stateMutability": "pure",
      "type": "function",
      "signature": "0x5e81b958"
    },
    {
      "constant": true,
      "inputs": [
        {
          "name": "_id",
          "type": "uint256"
        }
      ],
      "name": "ownerOf",
      "outputs": [
        {
          "name": "",
          "type": "address"
        }
      ],
      "payable": false,
      "stateMutability": "view",
      "type": "function",
      "signature": "0x6352211e"
    },
    {
      "constant": true,
      "inputs": [
        {
          "name": "_id",
          "type": "uint256"
        }
      ],
      "name": "getNonFungibleBaseType",
      "outputs": [
        {
          "name": "",
          "type": "uint256"
        }
      ],
      "payable": false,
      "stateMutability": "pure",
      "type": "function",
      "signature": "0x6f969c2d"
    },
    {
      "constant": false,
      "inputs": [],
      "name": "renounceOwnership",
      "outputs": [],
      "payable": false,
      "stateMutability": "nonpayable",
      "type": "function",
      "signature": "0x715018a6"
    },
    {
      "constant": true,
      "inputs": [
        {
          "name": "_id",
          "type": "uint256"
        }
      ],
      "name": "isNonFungibleBaseType",
      "outputs": [
        {
          "name": "",
          "type": "bool"
        }
      ],
      "payable": false,
      "stateMutability": "pure",
      "type": "function",
      "signature": "0x7269a327"
    },
    {
      "constant": false,
      "inputs": [
        {
          "name": "_id",
          "type": "uint256"
        },
        {
          "name": "_to",
          "type": "address[]"
        },
        {
          "name": "_quantities",
          "type": "uint256[]"
        }
      ],
      "name": "mintFungible",
      "outputs": [],
      "payable": false,
      "stateMutability": "nonpayable",
      "type": "function",
      "signature": "0x78b27221"
    },
    {
      "constant": true,
      "inputs": [],
      "name": "owner",
      "outputs": [
        {
          "name": "",
          "type": "address"
        }
      ],
      "payable": false,
      "stateMutability": "view",
      "type": "function",
      "signature": "0x8da5cb5b"
    },
    {
      "constant": true,
      "inputs": [],
      "name": "isOwner",
      "outputs": [
        {
          "name": "",
          "type": "bool"
        }
      ],
      "payable": false,
      "stateMutability": "view",
      "type": "function",
      "signature": "0x8f32d59b"
    },
    {
      "constant": true,
      "inputs": [
        {
          "name": "_id",
          "type": "uint256"
        }
      ],
      "name": "getNonFungibleIndex",
      "outputs": [
        {
          "name": "",
          "type": "uint256"
        }
      ],
      "payable": false,
      "stateMutability": "pure",
      "type": "function",
      "signature": "0x9cca1c64"
    },
    {
      "constant": false,
      "inputs": [
        {
          "name": "_operator",
          "type": "address"
        },
        {
          "name": "_approved",
          "type": "bool"
        }
      ],
      "name": "setApprovalForAll",
      "outputs": [],
      "payable": false,
      "stateMutability": "nonpayable",
      "type": "function",
      "signature": "0xa22cb465"
    },
    {
      "constant": true,
      "inputs": [
        {
          "name": "_id",
          "type": "uint256"
        }
      ],
      "name": "isFungible",
      "outputs": [
        {
          "name": "",
          "type": "bool"
        }
      ],
      "payable": false,
      "stateMutability": "pure",
      "type": "function",
      "signature": "0xadebf6f2"
    },
    {
      "constant": false,
      "inputs": [
        {
          "name": "_uri",
          "type": "string"
        },
        {
          "name": "_isNF",
          "type": "bool"
        }
      ],
      "name": "create",
      "outputs": [
        {
          "name": "_type",
          "type": "uint256"
        }
      ],
      "payable": false,
      "stateMutability": "nonpayable",
      "type": "function",
      "signature": "0xcc10e401"
    },
    {
      "constant": true,
      "inputs": [
        {
          "name": "",
          "type": "uint256"
        }
      ],
      "name": "creators",
      "outputs": [
        {
          "name": "",
          "type": "address"
        }
      ],
      "payable": false,
      "stateMutability": "view",
      "type": "function",
      "signature": "0xcd53d08e"
    },
    {
      "constant": true,
      "inputs": [],
      "name": "ERC1155_RECEIVED",
      "outputs": [
        {
          "name": "",
          "type": "bytes4"
        }
      ],
      "payable": false,
      "stateMutability": "view",
      "type": "function",
      "signature": "0xe0a5c949"
    },
    {
      "constant": true,
      "inputs": [
        {
          "name": "_id",
          "type": "uint256"
        }
      ],
      "name": "isNonFungible",
      "outputs": [
        {
          "name": "",
          "type": "bool"
        }
      ],
      "payable": false,
      "stateMutability": "pure",
      "type": "function",
      "signature": "0xe44591f0"
    },
    {
      "constant": true,
      "inputs": [
        {
          "name": "_owner",
          "type": "address"
        },
        {
          "name": "_operator",
          "type": "address"
        }
      ],
      "name": "isApprovedForAll",
      "outputs": [
        {
          "name": "",
          "type": "bool"
        }
      ],
      "payable": false,
      "stateMutability": "view",
      "type": "function",
      "signature": "0xe985e9c5"
    },
    {
      "constant": false,
      "inputs": [
        {
          "name": "_from",
          "type": "address"
        },
        {
          "name": "_to",
          "type": "address"
        },
        {
          "name": "_id",
          "type": "uint256"
        },
        {
          "name": "_value",
          "type": "uint256"
        },
        {
          "name": "_data",
          "type": "bytes"
        }
      ],
      "name": "safeTransferFrom",
      "outputs": [],
      "payable": false,
      "stateMutability": "nonpayable",
      "type": "function",
      "signature": "0xf242432a"
    },
    {
      "constant": false,
      "inputs": [
        {
          "name": "newOwner",
          "type": "address"
        }
      ],
      "name": "transferOwnership",
      "outputs": [],
      "payable": false,
      "stateMutability": "nonpayable",
      "type": "function",
      "signature": "0xf2fde38b"
    },
    {
      "constant": false,
      "inputs": [
        {
          "name": "_type",
          "type": "uint256"
        },
        {
          "name": "_to",
          "type": "address[]"
        }
      ],
      "name": "mintNonFungible",
      "outputs": [],
      "payable": false,
      "stateMutability": "nonpayable",
      "type": "function",
      "signature": "0xf9419088"
    },
    {
      "constant": true,
      "inputs": [],
      "name": "ERC1155_BATCH_RECEIVED",
      "outputs": [
        {
          "name": "",
          "type": "bytes4"
        }
      ],
      "payable": false,
      "stateMutability": "view",
      "type": "function",
      "signature": "0xfc67bf1c"
    },
    {
      "anonymous": false,
      "inputs": [
        {
          "indexed": false,
          "name": "_from",
          "type": "address"
        },
        {
          "indexed": true,
          "name": "_owner",
          "type": "address"
        },
        {
          "indexed": true,
          "name": "_id",
          "type": "uint256"
        }
      ],
      "name": "SaleRequest",
      "type": "event",
      "signature": "0x756be205407f9de963c87339ccfdb4601725fe4108aa71f7c44c908a9166d70a"
    },
    {
      "anonymous": false,
      "inputs": [
        {
          "indexed": true,
          "name": "_operator",
          "type": "address"
        },
        {
          "indexed": true,
          "name": "_from",
          "type": "address"
        },
        {
          "indexed": true,
          "name": "_to",
          "type": "address"
        },
        {
          "indexed": false,
          "name": "_id",
          "type": "uint256"
        },
        {
          "indexed": false,
          "name": "_value",
          "type": "uint256"
        }
      ],
      "name": "TransferSingle",
      "type": "event",
      "signature": "0xc3d58168c5ae7397731d063d5bbf3d657854427343f4c083240f7aacaa2d0f62"
    },
    {
      "anonymous": false,
      "inputs": [
        {
          "indexed": true,
          "name": "_operator",
          "type": "address"
        },
        {
          "indexed": true,
          "name": "_from",
          "type": "address"
        },
        {
          "indexed": true,
          "name": "_to",
          "type": "address"
        },
        {
          "indexed": false,
          "name": "_ids",
          "type": "uint256[]"
        },
        {
          "indexed": false,
          "name": "_values",
          "type": "uint256[]"
        }
      ],
      "name": "TransferBatch",
      "type": "event",
      "signature": "0x4a39dc06d4c0dbc64b70af90fd698a233a518aa5d07e595d983b8c0526c8f7fb"
    },
    {
      "anonymous": false,
      "inputs": [
        {
          "indexed": true,
          "name": "_owner",
          "type": "address"
        },
        {
          "indexed": true,
          "name": "_operator",
          "type": "address"
        },
        {
          "indexed": false,
          "name": "_approved",
          "type": "bool"
        }
      ],
      "name": "ApprovalForAll",
      "type": "event",
      "signature": "0x17307eab39ab6107e8899845ad3d59bd9653f200f220920489ca2b5937696c31"
    },
    {
      "anonymous": false,
      "inputs": [
        {
          "indexed": false,
          "name": "_value",
          "type": "string"
        },
        {
          "indexed": true,
          "name": "_id",
          "type": "uint256"
        }
      ],
      "name": "URI",
      "type": "event",
      "signature": "0x6bb7ff708619ba0610cba295a58592e0451dee2622938c8755667688daf3529b"
    },
    {
      "anonymous": false,
      "inputs": [
        {
          "indexed": true,
          "name": "previousOwner",
          "type": "address"
        },
        {
          "indexed": true,
          "name": "newOwner",
          "type": "address"
        }
      ],
      "name": "OwnershipTransferred",
      "type": "event",
      "signature": "0x8be0079c531659141344cd1fd0a4f28419497f9722a3daafe3b4186f6b6457e0"
    },
    {
      "constant": false,
      "inputs": [],
      "name": "createAndMint",
      "outputs": [
        {
          "name": "",
          "type": "uint256"
        }
      ],
      "payable": false,
      "stateMutability": "nonpayable",
      "type": "function",
      "signature": "0x21a0a0d8"
    },
    {
      "constant": true,
      "inputs": [],
      "name": "returnBalance",
      "outputs": [
        {
          "name": "",
          "type": "uint256"
        }
      ],
      "payable": false,
      "stateMutability": "view",
      "type": "function",
      "signature": "0x900551a8"
    },
    {
      "constant": false,
      "inputs": [],
      "name": "initiatePictures",
      "outputs": [],
      "payable": false,
      "stateMutability": "nonpayable",
      "type": "function",
      "signature": "0xb34c56ee"
    },
    {
      "constant": true,
      "inputs": [],
      "name": "getPictures",
      "outputs": [
        {
          "name": "",
          "type": "uint256[]"
        }
      ],
      "payable": false,
      "stateMutability": "view",
      "type": "function",
      "signature": "0x7187d68b"
    },
    {
      "constant": false,
      "inputs": [
        {
          "name": "_id",
          "type": "uint256"
        }
      ],
      "name": "notify",
      "outputs": [],
      "payable": false,
      "stateMutability": "nonpayable",
      "type": "function",
      "signature": "0x98d078b4"
    },
    {
      "constant": false,
      "inputs": [],
      "name": "getArt",
      "outputs": [],
      "payable": false,
      "stateMutability": "nonpayable",
      "type": "function",
      "signature": "0xe38fb866"
    }
  ],
  "bytecode": "0x6080604052336000806101000a81548173ffffffffffffffffffffffffffffffffffffffff021916908373ffffffffffffffffffffffffffffffffffffffff1602179055506000809054906101000a900473ffffffffffffffffffffffffffffffffffffffff1673ffffffffffffffffffffffffffffffffffffffff16600073ffffffffffffffffffffffffffffffffffffffff167f8be0079c531659141344cd1fd0a4f28419497f9722a3daafe3b4186f6b6457e060405160405180910390a361400a806100cf6000396000f3fe608060405234801561001057600080fd5b506004361061020c576000357c010000000000000000000000000000000000000000000000000000000090048063900551a81161012c578063e0a5c949116100bf578063f242432a1161008e578063f242432a14610c60578063f2fde38b14610d2d578063f941908814610d71578063fc67bf1c14610df45761020c565b8063e0a5c94914610b38578063e38fb86614610b94578063e44591f014610b9e578063e985e9c514610be45761020c565b8063adebf6f2116100fb578063adebf6f2146109e1578063b34c56ee14610a27578063cc10e40114610a31578063cd53d08e14610aca5761020c565b8063900551a81461090357806398d078b4146109215780639cca1c641461094f578063a22cb465146109915761020c565b80636352211e116101a45780637269a327116101735780637269a3271461077957806378b27221146107bf5780638da5cb5b146108975780638f32d59b146108e15761020c565b80636352211e146106605780636f969c2d146106ce578063715018a6146107105780637187d68b1461071a5761020c565b80632eb2c2d6116101e05780632eb2c2d614610338578063425beb101461049b5780634e1273f4146104f75780635e81b9581461061a5761020c565b8062fdd58e1461021157806301ffc9a71461027357806308d7d469146102d857806321a0a0d81461031a575b600080fd5b61025d6004803603604081101561022757600080fd5b81019080803573ffffffffffffffffffffffffffffffffffffffff16906020019092919080359060200190929190505050610e50565b6040518082815260200191505060405180910390f35b6102be6004803603602081101561028957600080fd5b8101908080357bffffffffffffffffffffffffffffffffffffffffffffffffffffffff19169060200190929190505050610f34565b604051808215151515815260200191505060405180910390f35b610304600480360360208110156102ee57600080fd5b810190808035906020019092919050505061101d565b6040518082815260200191505060405180910390f35b610322611035565b6040518082815260200191505060405180910390f35b610499600480360360a081101561034e57600080fd5b81019080803573ffffffffffffffffffffffffffffffffffffffff169060200190929190803573ffffffffffffffffffffffffffffffffffffffff169060200190929190803590602001906401000000008111156103ab57600080fd5b8201836020820111156103bd57600080fd5b803590602001918460208302840111640100000000831117156103df57600080fd5b90919293919293908035906020019064010000000081111561040057600080fd5b82018360208201111561041257600080fd5b8035906020019184602083028401116401000000008311171561043457600080fd5b90919293919293908035906020019064010000000081111561045557600080fd5b82018360208201111561046757600080fd5b8035906020019184600183028401116401000000008311171561048957600080fd5b909192939192939050505061105f565b005b6104dd600480360360208110156104b157600080fd5b81019080803573ffffffffffffffffffffffffffffffffffffffff16906020019092919050505061185c565b604051808215151515815260200191505060405180910390f35b6105c36004803603604081101561050d57600080fd5b810190808035906020019064010000000081111561052a57600080fd5b82018360208201111561053c57600080fd5b8035906020019184602083028401116401000000008311171561055e57600080fd5b90919293919293908035906020019064010000000081111561057f57600080fd5b82018360208201111561059157600080fd5b803590602001918460208302840111640100000000831117156105b357600080fd5b909192939192939050505061187c565b6040518080602001828103825283818151815260200191508051906020019060200280838360005b838110156106065780820151818401526020810190506105eb565b505050509050019250505060405180910390f35b6106466004803603602081101561063057600080fd5b8101908080359060200190929190505050611a6b565b604051808215151515815260200191505060405180910390f35b61068c6004803603602081101561067657600080fd5b8101908080359060200190929190505050611ada565b604051808273ffffffffffffffffffffffffffffffffffffffff1673ffffffffffffffffffffffffffffffffffffffff16815260200191505060405180910390f35b6106fa600480360360208110156106e457600080fd5b8101908080359060200190929190505050611b17565b6040518082815260200191505060405180910390f35b610718611b5c565b005b610722611c2e565b6040518080602001828103825283818151815260200191508051906020019060200280838360005b8381101561076557808201518184015260208101905061074a565b505050509050019250505060405180910390f35b6107a56004803603602081101561078f57600080fd5b8101908080359060200190929190505050611d7a565b604051808215151515815260200191505060405180910390f35b610895600480360360608110156107d557600080fd5b8101908080359060200190929190803590602001906401000000008111156107fc57600080fd5b82018360208201111561080e57600080fd5b8035906020019184602083028401116401000000008311171561083057600080fd5b90919293919293908035906020019064010000000081111561085157600080fd5b82018360208201111561086357600080fd5b8035906020019184602083028401116401000000008311171561088557600080fd5b9091929391929390505050611de8565b005b61089f612015565b604051808273ffffffffffffffffffffffffffffffffffffffff1673ffffffffffffffffffffffffffffffffffffffff16815260200191505060405180910390f35b6108e961203e565b604051808215151515815260200191505060405180910390f35b61090b612095565b6040518082815260200191505060405180910390f35b61094d6004803603602081101561093757600080fd5b8101908080359060200190929190505050612184565b005b61097b6004803603602081101561096557600080fd5b81019080803590602001909291905050506122b7565b6040518082815260200191505060405180910390f35b6109df600480360360408110156109a757600080fd5b81019080803573ffffffffffffffffffffffffffffffffffffffff1690602001909291908035151590602001909291905050506122f5565b005b610a0d600480360360208110156109f757600080fd5b81019080803590602001909291905050506123f6565b604051808215151515815260200191505060405180910390f35b610a2f612424565b005b610ab460048036036040811015610a4757600080fd5b8101908080359060200190640100000000811115610a6457600080fd5b820183602082011115610a7657600080fd5b80359060200191846001830284011164010000000083111715610a9857600080fd5b9091929391929390803515159060200190929190505050612ad5565b6040518082815260200191505060405180910390f35b610af660048036036020811015610ae057600080fd5b8101908080359060200190929190505050612c6c565b604051808273ffffffffffffffffffffffffffffffffffffffff1673ffffffffffffffffffffffffffffffffffffffff16815260200191505060405180910390f35b610b40612c9f565b60405180827bffffffffffffffffffffffffffffffffffffffffffffffffffffffff19167bffffffffffffffffffffffffffffffffffffffffffffffffffffffff1916815260200191505060405180910390f35b610b9c612cc6565b005b610bca60048036036020811015610bb457600080fd5b8101908080359060200190929190505050612f96565b604051808215151515815260200191505060405180910390f35b610c4660048036036040811015610bfa57600080fd5b81019080803573ffffffffffffffffffffffffffffffffffffffff169060200190929190803573ffffffffffffffffffffffffffffffffffffffff169060200190929190505050612fc4565b604051808215151515815260200191505060405180910390f35b610d2b600480360360a0811015610c7657600080fd5b81019080803573ffffffffffffffffffffffffffffffffffffffff169060200190929190803573ffffffffffffffffffffffffffffffffffffffff169060200190929190803590602001909291908035906020019092919080359060200190640100000000811115610ce757600080fd5b820183602082011115610cf957600080fd5b80359060200191846001830284011164010000000083111715610d1b57600080fd5b9091929391929390505050613058565b005b610d6f60048036036020811015610d4357600080fd5b81019080803573ffffffffffffffffffffffffffffffffffffffff1690602001909291905050506136c9565b005b610df260048036036040811015610d8757600080fd5b810190808035906020019092919080359060200190640100000000811115610dae57600080fd5b820183602082011115610dc057600080fd5b80359060200191846020830284011164010000000083111715610de257600080fd5b90919293919293905050506136e8565b005b610dfc613abd565b60405180827bffffffffffffffffffffffffffffffffffffffffffffffffffffffff19167bffffffffffffffffffffffffffffffffffffffffffffffffffffffff1916815260200191505060405180910390f35b6000610e5b82611a6b565b15610eda578273ffffffffffffffffffffffffffffffffffffffff166003600084815260200190815260200160002060009054906101000a900473ffffffffffffffffffffffffffffffffffffffff1673ffffffffffffffffffffffffffffffffffffffff1614610ecd576000610ed0565b60015b60ff169050610f2e565b6001600083815260200190815260200160002060008473ffffffffffffffffffffffffffffffffffffffff1673ffffffffffffffffffffffffffffffffffffffff1681526020019081526020016000205490505b92915050565b60006301ffc9a77c0100000000000000000000000000000000000000000000000000000000027bffffffffffffffffffffffffffffffffffffffffffffffffffffffff1916827bffffffffffffffffffffffffffffffffffffffffffffffffffffffff19161480611005575063d9b67a267c0100000000000000000000000000000000000000000000000000000000027bffffffffffffffffffffffffffffffffffffffffffffffffffffffff1916827bffffffffffffffffffffffffffffffffffffffffffffffffffffffff1916145b156110135760019050611018565b600090505b919050565b60066020528060005260406000206000915090505481565b600061103f61203e565b151561104a57600080fd5b611052613ae4565b61105a613baa565b905090565b600073ffffffffffffffffffffffffffffffffffffffff168773ffffffffffffffffffffffffffffffffffffffff1614151515611104576040517f08c379a000000000000000000000000000000000000000000000000000000000815260040180806020018281038252601b8152602001807f63616e6e6f742073656e6420746f207a65726f2061646472657373000000000081525060200191505060405180910390fd5b8383905086869050141515611181576040517f08c379a00000000000000000000000000000000000000000000000000000000081526004018080602001828103825260178152602001807f4172726179206c656e677468206d757374206d6174636800000000000000000081525060200191505060405180910390fd5b3373ffffffffffffffffffffffffffffffffffffffff168873ffffffffffffffffffffffffffffffffffffffff161480611248575060011515600260008a73ffffffffffffffffffffffffffffffffffffffff1673ffffffffffffffffffffffffffffffffffffffff16815260200190815260200160002060003373ffffffffffffffffffffffffffffffffffffffff1673ffffffffffffffffffffffffffffffffffffffff16815260200190815260200160002060009054906101000a900460ff161515145b151561129f576040517f08c379a000000000000000000000000000000000000000000000000000000000815260040180806020018281038252602f815260200180613f81602f913960400191505060405180910390fd5b60008090505b8686905081101561153057600087878381811015156112c057fe5b905060200201359050600086868481811015156112d957fe5b9050602002013590506112eb82612f96565b156113b4578a73ffffffffffffffffffffffffffffffffffffffff166003600084815260200190815260200160002060009054906101000a900473ffffffffffffffffffffffffffffffffffffffff1673ffffffffffffffffffffffffffffffffffffffff1614151561135d57600080fd5b896003600084815260200190815260200160002060006101000a81548173ffffffffffffffffffffffffffffffffffffffff021916908373ffffffffffffffffffffffffffffffffffffffff160217905550611523565b611417816001600085815260200190815260200160002060008e73ffffffffffffffffffffffffffffffffffffffff1673ffffffffffffffffffffffffffffffffffffffff16815260200190815260200160002054613de090919063ffffffff16565b6001600084815260200190815260200160002060008d73ffffffffffffffffffffffffffffffffffffffff1673ffffffffffffffffffffffffffffffffffffffff168152602001908152602001600020819055506114ce6001600084815260200190815260200160002060008c73ffffffffffffffffffffffffffffffffffffffff1673ffffffffffffffffffffffffffffffffffffffff1681526020019081526020016000205482613df990919063ffffffff16565b6001600084815260200190815260200160002060008c73ffffffffffffffffffffffffffffffffffffffff1673ffffffffffffffffffffffffffffffffffffffff168152602001908152602001600020819055505b50508060010190506112a5565b508673ffffffffffffffffffffffffffffffffffffffff168873ffffffffffffffffffffffffffffffffffffffff163373ffffffffffffffffffffffffffffffffffffffff167f4a39dc06d4c0dbc64b70af90fd698a233a518aa5d07e595d983b8c0526c8f7fb898989896040518080602001806020018381038352878782818152602001925060200280828437600081840152601f19601f8201169050808301925050508381038252858582818152602001925060200280828437600081840152601f19601f820116905080830192505050965050505050505060405180910390a46116328773ffffffffffffffffffffffffffffffffffffffff16613e15565b156118525763bc197c817c0100000000000000000000000000000000000000000000000000000000027bffffffffffffffffffffffffffffffffffffffffffffffffffffffff19168773ffffffffffffffffffffffffffffffffffffffff1663bc197c81338b8a8a8a8a8a8a6040518963ffffffff167c0100000000000000000000000000000000000000000000000000000000028152600401808973ffffffffffffffffffffffffffffffffffffffff1673ffffffffffffffffffffffffffffffffffffffff1681526020018873ffffffffffffffffffffffffffffffffffffffff1673ffffffffffffffffffffffffffffffffffffffff16815260200180602001806020018060200184810384528a8a82818152602001925060200280828437600081840152601f19601f8201169050808301925050508481038352888882818152602001925060200280828437600081840152601f19601f8201169050808301925050508481038252868682818152602001925080828437600081840152601f19601f8201169050808301925050509b505050505050505050505050602060405180830381600087803b1580156117eb57600080fd5b505af11580156117ff573d6000803e3d6000fd5b505050506040513d602081101561181557600080fd5b81019080805190602001909291905050507bffffffffffffffffffffffffffffffffffffffffffffffffffffffff191614151561185157600080fd5b5b5050505050505050565b60076020528060005260406000206000915054906101000a900460ff1681565b6060828290508585905014151561189257600080fd5b6060858590506040519080825280602002602001820160405280156118c65781602001602082028038833980820191505090505b50905060008090505b86869050811015611a5e57600085858381811015156118ea57fe5b9050602002013590506118fc81611a6b565b156119bb57878783818110151561190f57fe5b9050602002013573ffffffffffffffffffffffffffffffffffffffff1673ffffffffffffffffffffffffffffffffffffffff166003600083815260200190815260200160002060009054906101000a900473ffffffffffffffffffffffffffffffffffffffff1673ffffffffffffffffffffffffffffffffffffffff161461199857600061199b565b60015b60ff1683838151811015156119ac57fe5b90602001906020020181815250505b60016000828152602001908152602001600020600089898581811015156119de57fe5b9050602002013573ffffffffffffffffffffffffffffffffffffffff1673ffffffffffffffffffffffffffffffffffffffff1673ffffffffffffffffffffffffffffffffffffffff168152602001908152602001600020548383815181101515611a4457fe5b9060200190602002018181525050508060010190506118cf565b5080915050949350505050565b60007f8000000000000000000000000000000000000000000000000000000000000000808316148015611ad3575060007fffffffffffffffffffffffffffffffffffffffffffffffffffffffffffffffff6fffffffffffffffffffffffffffffffff16831614155b9050919050565b60006003600083815260200190815260200160002060009054906101000a900473ffffffffffffffffffffffffffffffffffffffff169050919050565b600060807fffffffffffffffffffffffffffffffffffffffffffffffffffffffffffffffff6fffffffffffffffffffffffffffffffff169060020a0282169050919050565b611b6461203e565b1515611b6f57600080fd5b600073ffffffffffffffffffffffffffffffffffffffff166000809054906101000a900473ffffffffffffffffffffffffffffffffffffffff1673ffffffffffffffffffffffffffffffffffffffff167f8be0079c531659141344cd1fd0a4f28419497f9722a3daafe3b4186f6b6457e060405160405180910390a360008060006101000a81548173ffffffffffffffffffffffffffffffffffffffff021916908373ffffffffffffffffffffffffffffffffffffffff160217905550565b60606000600454141515611d1e576060600454604051908082528060200260200182016040528015611c6f5781602001602082028038833980820191505090505b5090506000600290505b60045481111515611d14576080819060020a028260028303815181101515611c9d57fe5b90602001906020020181815250507f80000000000000000000000000000000000000000000000000000000000000008260028303815181101515611cdd57fe5b90602001906020020151178260028303815181101515611cf957fe5b90602001906020020181815250508080600101915050611c79565b5080915050611d77565b60606001604051908082528060200260200182016040528015611d505781602001602082028038833980820191505090505b509050600a816000815181101515611d6457fe5b9060200190602002018181525050809150505b90565b60007f8000000000000000000000000000000000000000000000000000000000000000808316148015611de1575060007fffffffffffffffffffffffffffffffffffffffffffffffffffffffffffffffff6fffffffffffffffffffffffffffffffff168316145b9050919050565b843373ffffffffffffffffffffffffffffffffffffffff166005600083815260200190815260200160002060009054906101000a900473ffffffffffffffffffffffffffffffffffffffff1673ffffffffffffffffffffffffffffffffffffffff16141515611e5657600080fd5b611e5f866123f6565b1515611e6a57600080fd5b60008090505b8585905081101561200c5760008686838181101515611e8b57fe5b9050602002013573ffffffffffffffffffffffffffffffffffffffff16905060008585848181101515611eba57fe5b905060200201359050611f26600160008b815260200190815260200160002060008473ffffffffffffffffffffffffffffffffffffffff1673ffffffffffffffffffffffffffffffffffffffff1681526020019081526020016000205482613df990919063ffffffff16565b600160008b815260200190815260200160002060008473ffffffffffffffffffffffffffffffffffffffff1673ffffffffffffffffffffffffffffffffffffffff168152602001908152602001600020819055508173ffffffffffffffffffffffffffffffffffffffff16600073ffffffffffffffffffffffffffffffffffffffff163373ffffffffffffffffffffffffffffffffffffffff167fc3d58168c5ae7397731d063d5bbf3d657854427343f4c083240f7aacaa2d0f628c85604051808381526020018281526020019250505060405180910390a45050806001019050611e70565b50505050505050565b60008060009054906101000a900473ffffffffffffffffffffffffffffffffffffffff16905090565b60008060009054906101000a900473ffffffffffffffffffffffffffffffffffffffff1673ffffffffffffffffffffffffffffffffffffffff163373ffffffffffffffffffffffffffffffffffffffff1614905090565b600080608060019060020a0290503073ffffffffffffffffffffffffffffffffffffffff1662fdd58e33836040518363ffffffff167c0100000000000000000000000000000000000000000000000000000000028152600401808373ffffffffffffffffffffffffffffffffffffffff1673ffffffffffffffffffffffffffffffffffffffff1681526020018281526020019250505060206040518083038186803b15801561214357600080fd5b505afa158015612157573d6000803e3d6000fd5b505050506040513d602081101561216d57600080fd5b810190808051906020019092919050505091505090565b61218d81612f96565b151561219857600080fd5b3373ffffffffffffffffffffffffffffffffffffffff166003600083815260200190815260200160002060009054906101000a900473ffffffffffffffffffffffffffffffffffffffff1673ffffffffffffffffffffffffffffffffffffffff161415151561220657600080fd5b806003600083815260200190815260200160002060009054906101000a900473ffffffffffffffffffffffffffffffffffffffff1673ffffffffffffffffffffffffffffffffffffffff167f756be205407f9de963c87339ccfdb4601725fe4108aa71f7c44c908a9166d70a33604051808273ffffffffffffffffffffffffffffffffffffffff1673ffffffffffffffffffffffffffffffffffffffff16815260200191505060405180910390a350565b60007fffffffffffffffffffffffffffffffffffffffffffffffffffffffffffffffff6fffffffffffffffffffffffffffffffff1682169050919050565b80600260003373ffffffffffffffffffffffffffffffffffffffff1673ffffffffffffffffffffffffffffffffffffffff16815260200190815260200160002060008473ffffffffffffffffffffffffffffffffffffffff1673ffffffffffffffffffffffffffffffffffffffff16815260200190815260200160002060006101000a81548160ff0219169083151502179055508173ffffffffffffffffffffffffffffffffffffffff163373ffffffffffffffffffffffffffffffffffffffff167f17307eab39ab6107e8899845ad3d59bd9653f200f220920489ca2b5937696c3183604051808215151515815260200191505060405180910390a35050565b6000807f80000000000000000000000000000000000000000000000000000000000000008316149050919050565b60608060405190810160405280602f8152602001613fb0602f9139905060608060405190810160405280602f8152602001613f52602f9139905060608060405190810160405280602f8152602001613f23602f9139905060003073ffffffffffffffffffffffffffffffffffffffff1663cc10e4018560016040518363ffffffff167c0100000000000000000000000000000000000000000000000000000000028152600401808060200183151515158152602001828103825284818151815260200191508051906020019080838360005b838110156125115780820151818401526020810190506124f6565b50505050905090810190601f16801561253e5780820380516001836020036101000a031916815260200191505b509350505050602060405180830381600087803b15801561255e57600080fd5b505af1158015612572573d6000803e3d6000fd5b505050506040513d602081101561258857600080fd5b8101908080519060200190929190505050905060003073ffffffffffffffffffffffffffffffffffffffff1663cc10e4018560016040518363ffffffff167c0100000000000000000000000000000000000000000000000000000000028152600401808060200183151515158152602001828103825284818151815260200191508051906020019080838360005b83811015612631578082015181840152602081019050612616565b50505050905090810190601f16801561265e5780820380516001836020036101000a031916815260200191505b509350505050602060405180830381600087803b15801561267e57600080fd5b505af1158015612692573d6000803e3d6000fd5b505050506040513d60208110156126a857600080fd5b8101908080519060200190929190505050905060003073ffffffffffffffffffffffffffffffffffffffff1663cc10e4018560016040518363ffffffff167c0100000000000000000000000000000000000000000000000000000000028152600401808060200183151515158152602001828103825284818151815260200191508051906020019080838360005b83811015612751578082015181840152602081019050612736565b50505050905090810190601f16801561277e5780820380516001836020036101000a031916815260200191505b509350505050602060405180830381600087803b15801561279e57600080fd5b505af11580156127b2573d6000803e3d6000fd5b505050506040513d60208110156127c857600080fd5b810190808051906020019092919050505090506060600160405190808252806020026020018201604052801561280d5781602001602082028038833980820191505090505b5090503381600081518110151561282057fe5b9060200190602002019073ffffffffffffffffffffffffffffffffffffffff16908173ffffffffffffffffffffffffffffffffffffffff16815250503073ffffffffffffffffffffffffffffffffffffffff1663f941908885836040518363ffffffff167c01000000000000000000000000000000000000000000000000000000000281526004018083815260200180602001828103825283818151815260200191508051906020019060200280838360005b838110156128ee5780820151818401526020810190506128d3565b505050509050019350505050600060405180830381600087803b15801561291457600080fd5b505af1158015612928573d6000803e3d6000fd5b505050503073ffffffffffffffffffffffffffffffffffffffff1663f941908884836040518363ffffffff167c01000000000000000000000000000000000000000000000000000000000281526004018083815260200180602001828103825283818151815260200191508051906020019060200280838360005b838110156129be5780820151818401526020810190506129a3565b505050509050019350505050600060405180830381600087803b1580156129e457600080fd5b505af11580156129f8573d6000803e3d6000fd5b505050503073ffffffffffffffffffffffffffffffffffffffff1663f941908883836040518363ffffffff167c01000000000000000000000000000000000000000000000000000000000281526004018083815260200180602001828103825283818151815260200191508051906020019060200280838360005b83811015612a8e578082015181840152602081019050612a73565b505050509050019350505050600060405180830381600087803b158015612ab457600080fd5b505af1158015612ac8573d6000803e3d6000fd5b5050505050505050505050565b600060806004600081546001019190508190559060020a0290508115612b1b577f8000000000000000000000000000000000000000000000000000000000000000811790505b336005600083815260200190815260200160002060006101000a81548173ffffffffffffffffffffffffffffffffffffffff021916908373ffffffffffffffffffffffffffffffffffffffff160217905550600073ffffffffffffffffffffffffffffffffffffffff16600073ffffffffffffffffffffffffffffffffffffffff163373ffffffffffffffffffffffffffffffffffffffff167fc3d58168c5ae7397731d063d5bbf3d657854427343f4c083240f7aacaa2d0f62846000604051808381526020018281526020019250505060405180910390a46000848490501115612c6557807f6bb7ff708619ba0610cba295a58592e0451dee2622938c8755667688daf3529b858560405180806020018281038252848482818152602001925080828437600081840152601f19601f820116905080830192505050935050505060405180910390a25b9392505050565b60056020528060005260406000206000915054906101000a900473ffffffffffffffffffffffffffffffffffffffff1681565b63f23a6e617c01000000000000000000000000000000000000000000000000000000000281565b60006001905060006080829060020a02905060006005600083815260200190815260200160002060009054906101000a900473ffffffffffffffffffffffffffffffffffffffff169050600760003373ffffffffffffffffffffffffffffffffffffffff1673ffffffffffffffffffffffffffffffffffffffff16815260200190815260200160002060009054906101000a900460ff16151515612d6957600080fd5b600a6001600084815260200190815260200160002060008373ffffffffffffffffffffffffffffffffffffffff1673ffffffffffffffffffffffffffffffffffffffff1681526020019081526020016000205410151515612dc957600080fd5b612e2d600a6001600085815260200190815260200160002060008473ffffffffffffffffffffffffffffffffffffffff1673ffffffffffffffffffffffffffffffffffffffff16815260200190815260200160002054613de090919063ffffffff16565b6001600084815260200190815260200160002060008373ffffffffffffffffffffffffffffffffffffffff1673ffffffffffffffffffffffffffffffffffffffff16815260200190815260200160002081905550612ee5600a6001600085815260200190815260200160002060003373ffffffffffffffffffffffffffffffffffffffff1673ffffffffffffffffffffffffffffffffffffffff16815260200190815260200160002054613df990919063ffffffff16565b6001600084815260200190815260200160002060003373ffffffffffffffffffffffffffffffffffffffff1673ffffffffffffffffffffffffffffffffffffffff168152602001908152602001600020819055506001600760003373ffffffffffffffffffffffffffffffffffffffff1673ffffffffffffffffffffffffffffffffffffffff16815260200190815260200160002060006101000a81548160ff021916908315150217905550505050565b60007f8000000000000000000000000000000000000000000000000000000000000000808316149050919050565b6000600260008473ffffffffffffffffffffffffffffffffffffffff1673ffffffffffffffffffffffffffffffffffffffff16815260200190815260200160002060008373ffffffffffffffffffffffffffffffffffffffff1673ffffffffffffffffffffffffffffffffffffffff16815260200190815260200160002060009054906101000a900460ff16905092915050565b600073ffffffffffffffffffffffffffffffffffffffff168573ffffffffffffffffffffffffffffffffffffffff16141515156130fd576040517f08c379a000000000000000000000000000000000000000000000000000000000815260040180806020018281038252601b8152602001807f63616e6e6f742073656e6420746f207a65726f2061646472657373000000000081525060200191505060405180910390fd5b3373ffffffffffffffffffffffffffffffffffffffff168673ffffffffffffffffffffffffffffffffffffffff1614806131c4575060011515600260008873ffffffffffffffffffffffffffffffffffffffff1673ffffffffffffffffffffffffffffffffffffffff16815260200190815260200160002060003373ffffffffffffffffffffffffffffffffffffffff1673ffffffffffffffffffffffffffffffffffffffff16815260200190815260200160002060009054906101000a900460ff161515145b151561321b576040517f08c379a000000000000000000000000000000000000000000000000000000000815260040180806020018281038252602f815260200180613f81602f913960400191505060405180910390fd5b61322484612f96565b156132ed578573ffffffffffffffffffffffffffffffffffffffff166003600086815260200190815260200160002060009054906101000a900473ffffffffffffffffffffffffffffffffffffffff1673ffffffffffffffffffffffffffffffffffffffff1614151561329657600080fd5b846003600086815260200190815260200160002060006101000a81548173ffffffffffffffffffffffffffffffffffffffff021916908373ffffffffffffffffffffffffffffffffffffffff16021790555061345c565b613350836001600087815260200190815260200160002060008973ffffffffffffffffffffffffffffffffffffffff1673ffffffffffffffffffffffffffffffffffffffff16815260200190815260200160002054613de090919063ffffffff16565b6001600086815260200190815260200160002060008873ffffffffffffffffffffffffffffffffffffffff1673ffffffffffffffffffffffffffffffffffffffff16815260200190815260200160002081905550613407836001600087815260200190815260200160002060008873ffffffffffffffffffffffffffffffffffffffff1673ffffffffffffffffffffffffffffffffffffffff16815260200190815260200160002054613df990919063ffffffff16565b6001600086815260200190815260200160002060008773ffffffffffffffffffffffffffffffffffffffff1673ffffffffffffffffffffffffffffffffffffffff168152602001908152602001600020819055505b8473ffffffffffffffffffffffffffffffffffffffff168673ffffffffffffffffffffffffffffffffffffffff163373ffffffffffffffffffffffffffffffffffffffff167fc3d58168c5ae7397731d063d5bbf3d657854427343f4c083240f7aacaa2d0f628787604051808381526020018281526020019250505060405180910390a46134ff8573ffffffffffffffffffffffffffffffffffffffff16613e15565b156136c15763f23a6e617c0100000000000000000000000000000000000000000000000000000000027bffffffffffffffffffffffffffffffffffffffffffffffffffffffff19168573ffffffffffffffffffffffffffffffffffffffff1663f23a6e613389888888886040518763ffffffff167c0100000000000000000000000000000000000000000000000000000000028152600401808773ffffffffffffffffffffffffffffffffffffffff1673ffffffffffffffffffffffffffffffffffffffff1681526020018673ffffffffffffffffffffffffffffffffffffffff1673ffffffffffffffffffffffffffffffffffffffff168152602001858152602001848152602001806020018281038252848482818152602001925080828437600081840152601f19601f820116905080830192505050975050505050505050602060405180830381600087803b15801561365a57600080fd5b505af115801561366e573d6000803e3d6000fd5b505050506040513d602081101561368457600080fd5b81019080805190602001909291905050507bffffffffffffffffffffffffffffffffffffffffffffffffffffffff19161415156136c057600080fd5b5b505050505050565b6136d161203e565b15156136dc57600080fd5b6136e581613e28565b50565b823373ffffffffffffffffffffffffffffffffffffffff166005600083815260200190815260200160002060009054906101000a900473ffffffffffffffffffffffffffffffffffffffff1673ffffffffffffffffffffffffffffffffffffffff1614151561375657600080fd5b61375f84612f96565b151561376a57600080fd5b60006001600660008781526020019081526020016000205401905060008090505b84849050811015613a7557600085858381811015156137a657fe5b9050602002013573ffffffffffffffffffffffffffffffffffffffff169050600082840188179050816003600083815260200190815260200160002060006101000a81548173ffffffffffffffffffffffffffffffffffffffff021916908373ffffffffffffffffffffffffffffffffffffffff1602179055508173ffffffffffffffffffffffffffffffffffffffff16600073ffffffffffffffffffffffffffffffffffffffff163373ffffffffffffffffffffffffffffffffffffffff167fc3d58168c5ae7397731d063d5bbf3d657854427343f4c083240f7aacaa2d0f62846001604051808381526020018281526020019250505060405180910390a46138c58273ffffffffffffffffffffffffffffffffffffffff16613e15565b15613a685763f23a6e617c0100000000000000000000000000000000000000000000000000000000027bffffffffffffffffffffffffffffffffffffffffffffffffffffffff19168273ffffffffffffffffffffffffffffffffffffffff1663f23a6e6133338560016040518563ffffffff167c0100000000000000000000000000000000000000000000000000000000028152600401808573ffffffffffffffffffffffffffffffffffffffff1673ffffffffffffffffffffffffffffffffffffffff1681526020018473ffffffffffffffffffffffffffffffffffffffff1673ffffffffffffffffffffffffffffffffffffffff1681526020018381526020018281526020018060200182810382526000815260200160200195505050505050602060405180830381600087803b158015613a0157600080fd5b505af1158015613a15573d6000803e3d6000fd5b505050506040513d6020811015613a2b57600080fd5b81019080805190602001909291905050507bffffffffffffffffffffffffffffffffffffffffffffffffffffffff1916141515613a6757600080fd5b5b505080600101905061378b565b50613a9f600660008781526020019081526020016000205485859050613df990919063ffffffff16565b60066000878152602001908152602001600020819055505050505050565b63bc197c817c01000000000000000000000000000000000000000000000000000000000281565b3073ffffffffffffffffffffffffffffffffffffffff1663cc10e40160006040518263ffffffff167c010000000000000000000000000000000000000000000000000000000002815260040180806020018315151515815260200182810382526000815260200160200192505050602060405180830381600087803b158015613b6c57600080fd5b505af1158015613b80573d6000803e3d6000fd5b505050506040513d6020811015613b9657600080fd5b810190808051906020019092919050505050565b600080608060019060020a02905060606001604051908082528060200260200182016040528015613bea5781602001602082028038833980820191505090505b5090506005600083815260200190815260200160002060009054906101000a900473ffffffffffffffffffffffffffffffffffffffff16816000815181101515613c3057fe5b9060200190602002019073ffffffffffffffffffffffffffffffffffffffff16908173ffffffffffffffffffffffffffffffffffffffff168152505060606001604051908082528060200260200182016040528015613c9e5781602001602082028038833980820191505090505b5090506103e8816000815181101515613cb357fe5b90602001906020020181815250503073ffffffffffffffffffffffffffffffffffffffff166378b272218484846040518463ffffffff167c0100000000000000000000000000000000000000000000000000000000028152600401808481526020018060200180602001838103835285818151815260200191508051906020019060200280838360005b83811015613d58578082015181840152602081019050613d3d565b50505050905001838103825284818151815260200191508051906020019060200280838360005b83811015613d9a578082015181840152602081019050613d7f565b5050505090500195505050505050600060405180830381600087803b158015613dc257600080fd5b505af1158015613dd6573d6000803e3d6000fd5b5050505050505090565b6000828211151515613dee57fe5b818303905092915050565b60008183019050828110151515613e0c57fe5b80905092915050565b600080823b905060008111915050919050565b600073ffffffffffffffffffffffffffffffffffffffff168173ffffffffffffffffffffffffffffffffffffffff1614151515613e6457600080fd5b8073ffffffffffffffffffffffffffffffffffffffff166000809054906101000a900473ffffffffffffffffffffffffffffffffffffffff1673ffffffffffffffffffffffffffffffffffffffff167f8be0079c531659141344cd1fd0a4f28419497f9722a3daafe3b4186f6b6457e060405160405180910390a3806000806101000a81548173ffffffffffffffffffffffffffffffffffffffff021916908373ffffffffffffffffffffffffffffffffffffffff1602179055505056fe7b227469746c65223a2022746f6b656e33222c2022696d616765223a20222e2e2f696d616765732f332e6a7067227d7b227469746c65223a2022746f6b656e32222c2022696d616765223a20222e2e2f696d616765732f322e6a7067227d4e656564206f70657261746f7220617070726f76616c20666f7220337264207061727479207472616e73666572732e7b227469746c65223a2022746f6b656e31222c2022696d616765223a20222e2e2f696d616765732f312e6a7067227da165627a7a723058209be8f067ed937cb710c12ef4ad4da4627e84e22ce3793fe37c59afdf63c7e4200029",
  "source": "pragma solidity ^0.5.4;\n\nimport \"../node_modules/openzeppelin-solidity/contracts/ownership/Ownable.sol\";\nimport \"../contracts/ERC1155/ERC1155MixedFungibleMintable.sol\";\n/* import \"../contracts/ERC1155/ERC1155.sol\"; */\n/* import \"../node_modules/openzeppelin-solidity/contracts/math/SafeMath.sol\"; */\n\ncontract Gallery is Ownable, ERC1155MixedFungibleMintable{\n    using SafeMath for uint256;\n\n   mapping (address => bool) public tokenProvided;\n   uint tokenCount;\n\n   event SaleRequest(address _from, address indexed _owner, uint indexed _id);\n\n   /* event Creators(address creator, address creatorOne);\n   event ReturnBalance(uint balance, string sign); */\n\n\n  function createAndMint() public onlyOwner() returns (uint){\n      createToken();\n      return mintToken();\n  }\n\n  function returnBalance() public view returns (uint) {\n      uint tokenType = uint(1) << 128;\n      return this.balanceOf(msg.sender, tokenType);\n  }\n\n  function initiatePictures() public{\n      string memory uri1 = \"{\\\"title\\\": \\\"token1\\\", \\\"image\\\": \\\"../images/1.jpg\\\"}\";\n      string memory uri2 = \"{\\\"title\\\": \\\"token2\\\", \\\"image\\\": \\\"../images/2.jpg\\\"}\";\n      string memory uri3 = \"{\\\"title\\\": \\\"token3\\\", \\\"image\\\": \\\"../images/3.jpg\\\"}\";\n      uint type1 = this.create(uri1, true);\n      uint type2 = this.create(uri2, true);\n      uint type3 = this.create(uri3, true);\n      address[] memory msgSender = new address[](1);\n      msgSender[0] = msg.sender;\n      this.mintNonFungible(type1, msgSender);\n      this.mintNonFungible(type2, msgSender);\n      this.mintNonFungible(type3, msgSender);\n  }\n\n  function getPictures() public view returns (uint[] memory){\n      if (nonce != 0){\n          uint[] memory nfTokens = new uint[](nonce);\n          for (uint i = 2; i <= nonce; i++){\n              nfTokens[i-2] = i << 128;\n              nfTokens[i-2] = nfTokens[i-2] | TYPE_NF_BIT;\n          }\n          return nfTokens;\n      }else{\n          uint[] memory nfTokens = new uint[](1);\n          nfTokens[0] = 10;\n          return nfTokens;\n      }\n\n  }\n\n\n   function createToken() private {\n       this.create(\"\", false);\n       /* uint tokenType = this.create(\"\", false); */\n       /* uint typeOne = uint(1) << 128;\n       emit Creators(creators[tokenType], creators[typeOne]); */\n   }\n\n   function mintToken() private returns (uint) {\n        uint tokenType = uint(1) << 128;\n        address[] memory toAddresses = new address[](1);\n        toAddresses[0] = creators[tokenType];\n\n        uint[] memory amount = new uint[](1);\n        amount[0] = 1000;\n\n        // mint new token and the owner gets 1000tokens\n        this.mintFungible(tokenType, toAddresses, amount);\n        /* uint balance = balances[tokenType][creators[tokenType]];\n        return balance; */\n\n   }\n\n   function notify(uint _id) external {\n       require(isNonFungible(_id));\n       require(nfOwners[_id] != msg.sender);\n       emit SaleRequest(msg.sender, nfOwners[_id], _id);\n   }\n\n\n   function getArt() external {\n       uint id = 1;\n       uint tokenType = id << 128;\n       address owner = creators[tokenType];\n\n       require(!tokenProvided[msg.sender]);\n       require(balances[tokenType][owner] >= 10);\n\n       balances[tokenType][owner] = balances[tokenType][owner].sub(10);\n       balances[tokenType][msg.sender] = balances[tokenType][msg.sender].add(10);\n       tokenProvided[msg.sender] = true;\n   }\n\n   //\n   // for test use\n   //\n\n   /* event Creators(address creator, address creatorOne);\n   event ReturnBalance(uint balance, string sign); */\n\n\n  /* function createAndMint() public onlyOwner() returns (uint){\n      createToken();\n      return mintToken();\n  } */\n\n  /* function returnBalance() public {\n    uint tokenId = uint(1) << 128;\n    uint _balance = balances[tokenId][creators[tokenId]];\n    string memory _sign = \"koregabalance\";\n    emit ReturnBalance(_balance, _sign);\n  } */\n\n\n   /* function createToken() private {\n       uint tokenType = this.create(\"\", false);\n       uint typeOne = uint(1) << 128;\n       emit Creators(creators[tokenType], creators[typeOne]);\n   }\n\n   function mintToken() private returns (uint) {\n        uint tokenType = uint(1) << 128;\n        address[] memory toAddresses = new address[](1);\n        toAddresses[0] = creators[tokenType];\n\n        uint[] memory amount = new uint[](1);\n        amount[0] = 1000;\n\n        // mint new token and the owner gets 1000tokens\n        this.mintFungible(tokenType, toAddresses, amount);\n        uint balance = balances[tokenType][creators[tokenType]];\n        return balance;\n\n   } */\n\n}\n",
  "sourcePath": "/Users/akira/ethereum/dapps/gallery/contracts/Gallery.sol",
  "compiler": {
    "name": "solc",
    "version": "0.5.4+commit.9549d8ff.Emscripten.clang"
  },
  "schemaVersion": "3.0.2",
  "updatedAt": "2019-03-15T02:46:51.961Z",
  "devdoc": {
    "methods": {
      "isApprovedForAll(address,address)": {
        "params": {
          "_operator": "Address of authorized operator",
          "_owner": "The owner of the Tokens"
        },
        "return": "True if the operator is approved, false if not"
      },
      "isOwner()": {
        "return": "true if `msg.sender` is the owner of the contract."
      },
      "owner()": {
        "return": "the address of the owner."
      },
      "renounceOwnership()": {
        "details": "Allows the current owner to relinquish control of the contract."
      },
      "setApprovalForAll(address,bool)": {
        "details": "MUST emit the ApprovalForAll event on success.",
        "params": {
          "_approved": "True if the operator is approved, false to revoke approval",
          "_operator": "Address to add to the set of authorized operators"
        }
      },
      "transferOwnership(address)": {
        "details": "Allows the current owner to transfer control of the contract to a newOwner.",
        "params": {
          "newOwner": "The address to transfer ownership to."
        }
      }
    }
  },
  "userdoc": {
    "methods": {
      "isApprovedForAll(address,address)": {
        "notice": "Queries the approval status of an operator for a given owner."
      },
      "renounceOwnership()": {
        "notice": "Renouncing to ownership will leave the contract without an owner. It will not be possible to call the functions with the `onlyOwner` modifier anymore."
      },
      "setApprovalForAll(address,bool)": {
        "notice": "Enable or disable approval for a third party (\"operator\") to manage all of the caller's tokens."
      }
    }
  }
}